{"abi":[{"inputs":[{"internalType":"uint256","name":"","type":"uint256"}],"name":"campains","outputs":[{"internalType":"address","name":"","type":"address"}],"stateMutability":"view","type":"function"},{"inputs":[{"internalType":"uint256","name":"minContribution","type":"uint256"}],"name":"createCampaign","outputs":[],"stateMutability":"nonpayable","type":"function"},{"inputs":[],"name":"getCampaigns","outputs":[{"internalType":"address[]","name":"","type":"address[]"}],"stateMutability":"view","type":"function"}],"devdoc":{"kind":"dev","methods":{},"version":1},"evm":{"assembly":"    /* \"Campaign.sol\":65:407  contract CampaignFactory {... */\n  mstore(0x40, 0x80)\n  callvalue\n  dup1\n  iszero\n  tag_1\n  jumpi\n  0x00\n  dup1\n  revert\ntag_1:\n  pop\n  dataSize(sub_0)\n  dup1\n  dataOffset(sub_0)\n  0x00\n  codecopy\n  0x00\n  return\nstop\n\nsub_0: assembly {\n        /* \"Campaign.sol\":65:407  contract CampaignFactory {... */\n      mstore(0x40, 0x80)\n      callvalue\n      dup1\n      iszero\n      tag_1\n      jumpi\n      0x00\n      dup1\n      revert\n    tag_1:\n      pop\n      jumpi(tag_2, lt(calldatasize, 0x04))\n      shr(0xe0, calldataload(0x00))\n      dup1\n      0xa3303a75\n      eq\n      tag_3\n      jumpi\n      dup1\n      0xa6b03633\n      eq\n      tag_4\n      jumpi\n      dup1\n      0xa9d5cba3\n      eq\n      tag_5\n      jumpi\n    tag_2:\n      0x00\n      dup1\n      revert\n        /* \"Campaign.sol\":128:304  function createCampaign(uint256 minContribution) public {... */\n    tag_3:\n      tag_6\n      0x04\n      dup1\n      calldatasize\n      sub\n      dup2\n      add\n      swap1\n      tag_7\n      swap2\n      swap1\n      tag_8\n      jump\t// in\n    tag_7:\n      tag_9\n      jump\t// in\n    tag_6:\n      stop\n        /* \"Campaign.sol\":310:405  function getCampaigns() public view returns (address[] memory) {... */\n    tag_4:\n      tag_10\n      tag_11\n      jump\t// in\n    tag_10:\n      mload(0x40)\n      tag_12\n      swap2\n      swap1\n      tag_13\n      jump\t// in\n    tag_12:\n      mload(0x40)\n      dup1\n      swap2\n      sub\n      swap1\n      return\n        /* \"Campaign.sol\":96:121  address[] public campains */\n    tag_5:\n      tag_14\n      0x04\n      dup1\n      calldatasize\n      sub\n      dup2\n      add\n      swap1\n      tag_15\n      swap2\n      swap1\n      tag_8\n      jump\t// in\n    tag_15:\n      tag_16\n      jump\t// in\n    tag_14:\n      mload(0x40)\n      tag_17\n      swap2\n      swap1\n      tag_18\n      jump\t// in\n    tag_17:\n      mload(0x40)\n      dup1\n      swap2\n      sub\n      swap1\n      return\n        /* \"Campaign.sol\":128:304  function createCampaign(uint256 minContribution) public {... */\n    tag_9:\n        /* \"Campaign.sol\":194:211  Campaign campaign */\n      0x00\n        /* \"Campaign.sol\":227:242  minContribution */\n      dup2\n        /* \"Campaign.sol\":244:254  msg.sender */\n      caller\n        /* \"Campaign.sol\":214:255  new Campaign(minContribution, msg.sender) */\n      mload(0x40)\n      tag_20\n      swap1\n      tag_21\n      jump\t// in\n    tag_20:\n      tag_22\n      swap3\n      swap2\n      swap1\n      tag_23\n      jump\t// in\n    tag_22:\n      mload(0x40)\n      dup1\n      swap2\n      sub\n      swap1\n      0x00\n      create\n      dup1\n      iszero\n      dup1\n      iszero\n      tag_24\n      jumpi\n      returndatasize\n      0x00\n      dup1\n      returndatacopy\n      revert(0x00, returndatasize)\n    tag_24:\n      pop\n        /* \"Campaign.sol\":194:255  Campaign campaign = new Campaign(minContribution, msg.sender) */\n      swap1\n      pop\n        /* \"Campaign.sol\":265:273  campains */\n      0x00\n        /* \"Campaign.sol\":287:295  campaign */\n      dup2\n        /* \"Campaign.sol\":265:297  campains.push(address(campaign)) */\n      swap1\n      dup1\n      0x01\n      dup2\n      sload\n      add\n      dup1\n      dup3\n      sstore\n      dup1\n      swap2\n      pop\n      pop\n      0x01\n      swap1\n      sub\n      swap1\n      0x00\n      mstore\n      keccak256(0x00, 0x20)\n      add\n      0x00\n      swap1\n      swap2\n      swap1\n      swap2\n      swap1\n      swap2\n      0x0100\n      exp\n      dup2\n      sload\n      dup2\n      0xffffffffffffffffffffffffffffffffffffffff\n      mul\n      not\n      and\n      swap1\n      dup4\n      0xffffffffffffffffffffffffffffffffffffffff\n      and\n      mul\n      or\n      swap1\n      sstore\n      pop\n        /* \"Campaign.sol\":184:304  {... */\n      pop\n        /* \"Campaign.sol\":128:304  function createCampaign(uint256 minContribution) public {... */\n      pop\n      jump\t// out\n        /* \"Campaign.sol\":310:405  function getCampaigns() public view returns (address[] memory) {... */\n    tag_11:\n        /* \"Campaign.sol\":355:371  address[] memory */\n      0x60\n        /* \"Campaign.sol\":390:398  campains */\n      0x00\n        /* \"Campaign.sol\":383:398  return campains */\n      dup1\n      sload\n      dup1\n      0x20\n      mul\n      0x20\n      add\n      mload(0x40)\n      swap1\n      dup2\n      add\n      0x40\n      mstore\n      dup1\n      swap3\n      swap2\n      swap1\n      dup2\n      dup2\n      mstore\n      0x20\n      add\n      dup3\n      dup1\n      sload\n      dup1\n      iszero\n      tag_27\n      jumpi\n      0x20\n      mul\n      dup3\n      add\n      swap2\n      swap1\n      0x00\n      mstore\n      keccak256(0x00, 0x20)\n      swap1\n    tag_28:\n      dup2\n      0x00\n      swap1\n      sload\n      swap1\n      0x0100\n      exp\n      swap1\n      div\n      0xffffffffffffffffffffffffffffffffffffffff\n      and\n      0xffffffffffffffffffffffffffffffffffffffff\n      and\n      dup2\n      mstore\n      0x20\n      add\n      swap1\n      0x01\n      add\n      swap1\n      dup1\n      dup4\n      gt\n      tag_28\n      jumpi\n    tag_27:\n      pop\n      pop\n      pop\n      pop\n      pop\n      swap1\n      pop\n        /* \"Campaign.sol\":310:405  function getCampaigns() public view returns (address[] memory) {... */\n      swap1\n      jump\t// out\n        /* \"Campaign.sol\":96:121  address[] public campains */\n    tag_16:\n      0x00\n      dup2\n      dup2\n      sload\n      dup2\n      lt\n      tag_29\n      jumpi\n      0x00\n      dup1\n      revert\n    tag_29:\n      swap1\n      0x00\n      mstore\n      keccak256(0x00, 0x20)\n      add\n      0x00\n      swap2\n      pop\n      sload\n      swap1\n      0x0100\n      exp\n      swap1\n      div\n      0xffffffffffffffffffffffffffffffffffffffff\n      and\n      dup2\n      jump\t// out\n    tag_21:\n      dataSize(sub_0)\n      dup1\n      dataOffset(sub_0)\n      dup4\n      codecopy\n      add\n      swap1\n      jump\t// out\n        /* \"#utility.yul\":88:205   */\n    tag_32:\n        /* \"#utility.yul\":197:198   */\n      0x00\n        /* \"#utility.yul\":194:195   */\n      dup1\n        /* \"#utility.yul\":187:199   */\n      revert\n        /* \"#utility.yul\":334:411   */\n    tag_34:\n        /* \"#utility.yul\":371:378   */\n      0x00\n        /* \"#utility.yul\":400:405   */\n      dup2\n        /* \"#utility.yul\":389:405   */\n      swap1\n      pop\n        /* \"#utility.yul\":334:411   */\n      swap2\n      swap1\n      pop\n      jump\t// out\n        /* \"#utility.yul\":417:539   */\n    tag_35:\n        /* \"#utility.yul\":490:514   */\n      tag_54\n        /* \"#utility.yul\":508:513   */\n      dup2\n        /* \"#utility.yul\":490:514   */\n      tag_34\n      jump\t// in\n    tag_54:\n        /* \"#utility.yul\":483:488   */\n      dup2\n        /* \"#utility.yul\":480:515   */\n      eq\n        /* \"#utility.yul\":470:533   */\n      tag_55\n      jumpi\n        /* \"#utility.yul\":529:530   */\n      0x00\n        /* \"#utility.yul\":526:527   */\n      dup1\n        /* \"#utility.yul\":519:531   */\n      revert\n        /* \"#utility.yul\":470:533   */\n    tag_55:\n        /* \"#utility.yul\":417:539   */\n      pop\n      jump\t// out\n        /* \"#utility.yul\":545:684   */\n    tag_36:\n        /* \"#utility.yul\":591:596   */\n      0x00\n        /* \"#utility.yul\":629:635   */\n      dup2\n        /* \"#utility.yul\":616:636   */\n      calldataload\n        /* \"#utility.yul\":607:636   */\n      swap1\n      pop\n        /* \"#utility.yul\":645:678   */\n      tag_57\n        /* \"#utility.yul\":672:677   */\n      dup2\n        /* \"#utility.yul\":645:678   */\n      tag_35\n      jump\t// in\n    tag_57:\n        /* \"#utility.yul\":545:684   */\n      swap3\n      swap2\n      pop\n      pop\n      jump\t// out\n        /* \"#utility.yul\":690:1019   */\n    tag_8:\n        /* \"#utility.yul\":749:755   */\n      0x00\n        /* \"#utility.yul\":798:800   */\n      0x20\n        /* \"#utility.yul\":786:795   */\n      dup3\n        /* \"#utility.yul\":777:784   */\n      dup5\n        /* \"#utility.yul\":773:796   */\n      sub\n        /* \"#utility.yul\":769:801   */\n      slt\n        /* \"#utility.yul\":766:885   */\n      iszero\n      tag_59\n      jumpi\n        /* \"#utility.yul\":804:883   */\n      tag_60\n      tag_32\n      jump\t// in\n    tag_60:\n        /* \"#utility.yul\":766:885   */\n    tag_59:\n        /* \"#utility.yul\":924:925   */\n      0x00\n        /* \"#utility.yul\":949:1002   */\n      tag_61\n        /* \"#utility.yul\":994:1001   */\n      dup5\n        /* \"#utility.yul\":985:991   */\n      dup3\n        /* \"#utility.yul\":974:983   */\n      dup6\n        /* \"#utility.yul\":970:992   */\n      add\n        /* \"#utility.yul\":949:1002   */\n      tag_36\n      jump\t// in\n    tag_61:\n        /* \"#utility.yul\":939:1002   */\n      swap2\n      pop\n        /* \"#utility.yul\":895:1012   */\n      pop\n        /* \"#utility.yul\":690:1019   */\n      swap3\n      swap2\n      pop\n      pop\n      jump\t// out\n        /* \"#utility.yul\":1025:1139   */\n    tag_37:\n        /* \"#utility.yul\":1092:1098   */\n      0x00\n        /* \"#utility.yul\":1126:1131   */\n      dup2\n        /* \"#utility.yul\":1120:1132   */\n      mload\n        /* \"#utility.yul\":1110:1132   */\n      swap1\n      pop\n        /* \"#utility.yul\":1025:1139   */\n      swap2\n      swap1\n      pop\n      jump\t// out\n        /* \"#utility.yul\":1145:1329   */\n    tag_38:\n        /* \"#utility.yul\":1244:1255   */\n      0x00\n        /* \"#utility.yul\":1278:1284   */\n      dup3\n        /* \"#utility.yul\":1273:1276   */\n      dup3\n        /* \"#utility.yul\":1266:1285   */\n      mstore\n        /* \"#utility.yul\":1318:1322   */\n      0x20\n        /* \"#utility.yul\":1313:1316   */\n      dup3\n        /* \"#utility.yul\":1309:1323   */\n      add\n        /* \"#utility.yul\":1294:1323   */\n      swap1\n      pop\n        /* \"#utility.yul\":1145:1329   */\n      swap3\n      swap2\n      pop\n      pop\n      jump\t// out\n        /* \"#utility.yul\":1335:1467   */\n    tag_39:\n        /* \"#utility.yul\":1402:1406   */\n      0x00\n        /* \"#utility.yul\":1425:1428   */\n      dup2\n        /* \"#utility.yul\":1417:1428   */\n      swap1\n      pop\n        /* \"#utility.yul\":1455:1459   */\n      0x20\n        /* \"#utility.yul\":1450:1453   */\n      dup3\n        /* \"#utility.yul\":1446:1460   */\n      add\n        /* \"#utility.yul\":1438:1460   */\n      swap1\n      pop\n        /* \"#utility.yul\":1335:1467   */\n      swap2\n      swap1\n      pop\n      jump\t// out\n        /* \"#utility.yul\":1473:1599   */\n    tag_40:\n        /* \"#utility.yul\":1510:1517   */\n      0x00\n        /* \"#utility.yul\":1550:1592   */\n      0xffffffffffffffffffffffffffffffffffffffff\n        /* \"#utility.yul\":1543:1548   */\n      dup3\n        /* \"#utility.yul\":1539:1593   */\n      and\n        /* \"#utility.yul\":1528:1593   */\n      swap1\n      pop\n        /* \"#utility.yul\":1473:1599   */\n      swap2\n      swap1\n      pop\n      jump\t// out\n        /* \"#utility.yul\":1605:1701   */\n    tag_41:\n        /* \"#utility.yul\":1642:1649   */\n      0x00\n        /* \"#utility.yul\":1671:1695   */\n      tag_67\n        /* \"#utility.yul\":1689:1694   */\n      dup3\n        /* \"#utility.yul\":1671:1695   */\n      tag_40\n      jump\t// in\n    tag_67:\n        /* \"#utility.yul\":1660:1695   */\n      swap1\n      pop\n        /* \"#utility.yul\":1605:1701   */\n      swap2\n      swap1\n      pop\n      jump\t// out\n        /* \"#utility.yul\":1707:1815   */\n    tag_42:\n        /* \"#utility.yul\":1784:1808   */\n      tag_69\n        /* \"#utility.yul\":1802:1807   */\n      dup2\n        /* \"#utility.yul\":1784:1808   */\n      tag_41\n      jump\t// in\n    tag_69:\n        /* \"#utility.yul\":1779:1782   */\n      dup3\n        /* \"#utility.yul\":1772:1809   */\n      mstore\n        /* \"#utility.yul\":1707:1815   */\n      pop\n      pop\n      jump\t// out\n        /* \"#utility.yul\":1821:2000   */\n    tag_43:\n        /* \"#utility.yul\":1890:1900   */\n      0x00\n        /* \"#utility.yul\":1911:1957   */\n      tag_71\n        /* \"#utility.yul\":1953:1956   */\n      dup4\n        /* \"#utility.yul\":1945:1951   */\n      dup4\n        /* \"#utility.yul\":1911:1957   */\n      tag_42\n      jump\t// in\n    tag_71:\n        /* \"#utility.yul\":1989:1993   */\n      0x20\n        /* \"#utility.yul\":1984:1987   */\n      dup4\n        /* \"#utility.yul\":1980:1994   */\n      add\n        /* \"#utility.yul\":1966:1994   */\n      swap1\n      pop\n        /* \"#utility.yul\":1821:2000   */\n      swap3\n      swap2\n      pop\n      pop\n      jump\t// out\n        /* \"#utility.yul\":2006:2119   */\n    tag_44:\n        /* \"#utility.yul\":2076:2080   */\n      0x00\n        /* \"#utility.yul\":2108:2112   */\n      0x20\n        /* \"#utility.yul\":2103:2106   */\n      dup3\n        /* \"#utility.yul\":2099:2113   */\n      add\n        /* \"#utility.yul\":2091:2113   */\n      swap1\n      pop\n        /* \"#utility.yul\":2006:2119   */\n      swap2\n      swap1\n      pop\n      jump\t// out\n        /* \"#utility.yul\":2155:2887   */\n    tag_45:\n        /* \"#utility.yul\":2274:2277   */\n      0x00\n        /* \"#utility.yul\":2303:2357   */\n      tag_74\n        /* \"#utility.yul\":2351:2356   */\n      dup3\n        /* \"#utility.yul\":2303:2357   */\n      tag_37\n      jump\t// in\n    tag_74:\n        /* \"#utility.yul\":2373:2459   */\n      tag_75\n        /* \"#utility.yul\":2452:2458   */\n      dup2\n        /* \"#utility.yul\":2447:2450   */\n      dup6\n        /* \"#utility.yul\":2373:2459   */\n      tag_38\n      jump\t// in\n    tag_75:\n        /* \"#utility.yul\":2366:2459   */\n      swap4\n      pop\n        /* \"#utility.yul\":2483:2539   */\n      tag_76\n        /* \"#utility.yul\":2533:2538   */\n      dup4\n        /* \"#utility.yul\":2483:2539   */\n      tag_39\n      jump\t// in\n    tag_76:\n        /* \"#utility.yul\":2562:2569   */\n      dup1\n        /* \"#utility.yul\":2593:2594   */\n      0x00\n        /* \"#utility.yul\":2578:2862   */\n    tag_77:\n        /* \"#utility.yul\":2603:2609   */\n      dup4\n        /* \"#utility.yul\":2600:2601   */\n      dup2\n        /* \"#utility.yul\":2597:2610   */\n      lt\n        /* \"#utility.yul\":2578:2862   */\n      iszero\n      tag_79\n      jumpi\n        /* \"#utility.yul\":2679:2685   */\n      dup2\n        /* \"#utility.yul\":2673:2686   */\n      mload\n        /* \"#utility.yul\":2706:2769   */\n      tag_80\n        /* \"#utility.yul\":2765:2768   */\n      dup9\n        /* \"#utility.yul\":2750:2763   */\n      dup3\n        /* \"#utility.yul\":2706:2769   */\n      tag_43\n      jump\t// in\n    tag_80:\n        /* \"#utility.yul\":2699:2769   */\n      swap8\n      pop\n        /* \"#utility.yul\":2792:2852   */\n      tag_81\n        /* \"#utility.yul\":2845:2851   */\n      dup4\n        /* \"#utility.yul\":2792:2852   */\n      tag_44\n      jump\t// in\n    tag_81:\n        /* \"#utility.yul\":2782:2852   */\n      swap3\n      pop\n        /* \"#utility.yul\":2638:2862   */\n      pop\n        /* \"#utility.yul\":2625:2626   */\n      0x01\n        /* \"#utility.yul\":2622:2623   */\n      dup2\n        /* \"#utility.yul\":2618:2627   */\n      add\n        /* \"#utility.yul\":2613:2627   */\n      swap1\n      pop\n        /* \"#utility.yul\":2578:2862   */\n      jump(tag_77)\n    tag_79:\n        /* \"#utility.yul\":2582:2596   */\n      pop\n        /* \"#utility.yul\":2878:2881   */\n      dup6\n        /* \"#utility.yul\":2871:2881   */\n      swap4\n      pop\n        /* \"#utility.yul\":2279:2887   */\n      pop\n      pop\n      pop\n        /* \"#utility.yul\":2155:2887   */\n      swap3\n      swap2\n      pop\n      pop\n      jump\t// out\n        /* \"#utility.yul\":2893:3266   */\n    tag_13:\n        /* \"#utility.yul\":3036:3040   */\n      0x00\n        /* \"#utility.yul\":3074:3076   */\n      0x20\n        /* \"#utility.yul\":3063:3072   */\n      dup3\n        /* \"#utility.yul\":3059:3077   */\n      add\n        /* \"#utility.yul\":3051:3077   */\n      swap1\n      pop\n        /* \"#utility.yul\":3123:3132   */\n      dup2\n        /* \"#utility.yul\":3117:3121   */\n      dup2\n        /* \"#utility.yul\":3113:3133   */\n      sub\n        /* \"#utility.yul\":3109:3110   */\n      0x00\n        /* \"#utility.yul\":3098:3107   */\n      dup4\n        /* \"#utility.yul\":3094:3111   */\n      add\n        /* \"#utility.yul\":3087:3134   */\n      mstore\n        /* \"#utility.yul\":3151:3259   */\n      tag_83\n        /* \"#utility.yul\":3254:3258   */\n      dup2\n        /* \"#utility.yul\":3245:3251   */\n      dup5\n        /* \"#utility.yul\":3151:3259   */\n      tag_45\n      jump\t// in\n    tag_83:\n        /* \"#utility.yul\":3143:3259   */\n      swap1\n      pop\n        /* \"#utility.yul\":2893:3266   */\n      swap3\n      swap2\n      pop\n      pop\n      jump\t// out\n        /* \"#utility.yul\":3272:3390   */\n    tag_46:\n        /* \"#utility.yul\":3359:3383   */\n      tag_85\n        /* \"#utility.yul\":3377:3382   */\n      dup2\n        /* \"#utility.yul\":3359:3383   */\n      tag_41\n      jump\t// in\n    tag_85:\n        /* \"#utility.yul\":3354:3357   */\n      dup3\n        /* \"#utility.yul\":3347:3384   */\n      mstore\n        /* \"#utility.yul\":3272:3390   */\n      pop\n      pop\n      jump\t// out\n        /* \"#utility.yul\":3396:3618   */\n    tag_18:\n        /* \"#utility.yul\":3489:3493   */\n      0x00\n        /* \"#utility.yul\":3527:3529   */\n      0x20\n        /* \"#utility.yul\":3516:3525   */\n      dup3\n        /* \"#utility.yul\":3512:3530   */\n      add\n        /* \"#utility.yul\":3504:3530   */\n      swap1\n      pop\n        /* \"#utility.yul\":3540:3611   */\n      tag_87\n        /* \"#utility.yul\":3608:3609   */\n      0x00\n        /* \"#utility.yul\":3597:3606   */\n      dup4\n        /* \"#utility.yul\":3593:3610   */\n      add\n        /* \"#utility.yul\":3584:3590   */\n      dup5\n        /* \"#utility.yul\":3540:3611   */\n      tag_46\n      jump\t// in\n    tag_87:\n        /* \"#utility.yul\":3396:3618   */\n      swap3\n      swap2\n      pop\n      pop\n      jump\t// out\n        /* \"#utility.yul\":3624:3742   */\n    tag_47:\n        /* \"#utility.yul\":3711:3735   */\n      tag_89\n        /* \"#utility.yul\":3729:3734   */\n      dup2\n        /* \"#utility.yul\":3711:3735   */\n      tag_34\n      jump\t// in\n    tag_89:\n        /* \"#utility.yul\":3706:3709   */\n      dup3\n        /* \"#utility.yul\":3699:3736   */\n      mstore\n        /* \"#utility.yul\":3624:3742   */\n      pop\n      pop\n      jump\t// out\n        /* \"#utility.yul\":3748:4080   */\n    tag_23:\n        /* \"#utility.yul\":3869:3873   */\n      0x00\n        /* \"#utility.yul\":3907:3909   */\n      0x40\n        /* \"#utility.yul\":3896:3905   */\n      dup3\n        /* \"#utility.yul\":3892:3910   */\n      add\n        /* \"#utility.yul\":3884:3910   */\n      swap1\n      pop\n        /* \"#utility.yul\":3920:3991   */\n      tag_91\n        /* \"#utility.yul\":3988:3989   */\n      0x00\n        /* \"#utility.yul\":3977:3986   */\n      dup4\n        /* \"#utility.yul\":3973:3990   */\n      add\n        /* \"#utility.yul\":3964:3970   */\n      dup6\n        /* \"#utility.yul\":3920:3991   */\n      tag_47\n      jump\t// in\n    tag_91:\n        /* \"#utility.yul\":4001:4073   */\n      tag_92\n        /* \"#utility.yul\":4069:4071   */\n      0x20\n        /* \"#utility.yul\":4058:4067   */\n      dup4\n        /* \"#utility.yul\":4054:4072   */\n      add\n        /* \"#utility.yul\":4045:4051   */\n      dup5\n        /* \"#utility.yul\":4001:4073   */\n      tag_46\n      jump\t// in\n    tag_92:\n        /* \"#utility.yul\":3748:4080   */\n      swap4\n      swap3\n      pop\n      pop\n      pop\n      jump\t// out\n    stop\n\n    sub_0: assembly {\n            /* \"Campaign.sol\":409:2196  contract Campaign {... */\n          mstore(0x40, 0x80)\n            /* \"Campaign.sol\":826:961  constructor(uint256 minContribution, address creator) {... */\n          callvalue\n          dup1\n          iszero\n          tag_1\n          jumpi\n          0x00\n          dup1\n          revert\n        tag_1:\n          pop\n          mload(0x40)\n          sub(codesize, bytecodeSize)\n          dup1\n          bytecodeSize\n          dup4\n          codecopy\n          dup2\n          dup2\n          add\n          0x40\n          mstore\n          dup2\n          add\n          swap1\n          tag_2\n          swap2\n          swap1\n          tag_3\n          jump\t// in\n        tag_2:\n            /* \"Campaign.sol\":912:927  minContribution */\n          dup2\n            /* \"Campaign.sol\":890:909  minimumContribution */\n          0x01\n            /* \"Campaign.sol\":890:927  minimumContribution = minContribution */\n          dup2\n          swap1\n          sstore\n          pop\n            /* \"Campaign.sol\":947:954  creator */\n          dup1\n            /* \"Campaign.sol\":937:944  manager */\n          0x00\n          dup1\n            /* \"Campaign.sol\":937:954  manager = creator */\n          0x0100\n          exp\n          dup2\n          sload\n          dup2\n          0xffffffffffffffffffffffffffffffffffffffff\n          mul\n          not\n          and\n          swap1\n          dup4\n          0xffffffffffffffffffffffffffffffffffffffff\n          and\n          mul\n          or\n          swap1\n          sstore\n          pop\n            /* \"Campaign.sol\":826:961  constructor(uint256 minContribution, address creator) {... */\n          pop\n          pop\n            /* \"Campaign.sol\":409:2196  contract Campaign {... */\n          jump(tag_6)\n            /* \"#utility.yul\":88:205   */\n        tag_8:\n            /* \"#utility.yul\":197:198   */\n          0x00\n            /* \"#utility.yul\":194:195   */\n          dup1\n            /* \"#utility.yul\":187:199   */\n          revert\n            /* \"#utility.yul\":334:411   */\n        tag_10:\n            /* \"#utility.yul\":371:378   */\n          0x00\n            /* \"#utility.yul\":400:405   */\n          dup2\n            /* \"#utility.yul\":389:405   */\n          swap1\n          pop\n            /* \"#utility.yul\":334:411   */\n          swap2\n          swap1\n          pop\n          jump\t// out\n            /* \"#utility.yul\":417:539   */\n        tag_11:\n            /* \"#utility.yul\":490:514   */\n          tag_23\n            /* \"#utility.yul\":508:513   */\n          dup2\n            /* \"#utility.yul\":490:514   */\n          tag_10\n          jump\t// in\n        tag_23:\n            /* \"#utility.yul\":483:488   */\n          dup2\n            /* \"#utility.yul\":480:515   */\n          eq\n            /* \"#utility.yul\":470:533   */\n          tag_24\n          jumpi\n            /* \"#utility.yul\":529:530   */\n          0x00\n            /* \"#utility.yul\":526:527   */\n          dup1\n            /* \"#utility.yul\":519:531   */\n          revert\n            /* \"#utility.yul\":470:533   */\n        tag_24:\n            /* \"#utility.yul\":417:539   */\n          pop\n          jump\t// out\n            /* \"#utility.yul\":545:688   */\n        tag_12:\n            /* \"#utility.yul\":602:607   */\n          0x00\n            /* \"#utility.yul\":633:639   */\n          dup2\n            /* \"#utility.yul\":627:640   */\n          mload\n            /* \"#utility.yul\":618:640   */\n          swap1\n          pop\n            /* \"#utility.yul\":649:682   */\n          tag_26\n            /* \"#utility.yul\":676:681   */\n          dup2\n            /* \"#utility.yul\":649:682   */\n          tag_11\n          jump\t// in\n        tag_26:\n            /* \"#utility.yul\":545:688   */\n          swap3\n          swap2\n          pop\n          pop\n          jump\t// out\n            /* \"#utility.yul\":694:820   */\n        tag_13:\n            /* \"#utility.yul\":731:738   */\n          0x00\n            /* \"#utility.yul\":771:813   */\n          0xffffffffffffffffffffffffffffffffffffffff\n            /* \"#utility.yul\":764:769   */\n          dup3\n            /* \"#utility.yul\":760:814   */\n          and\n            /* \"#utility.yul\":749:814   */\n          swap1\n          pop\n            /* \"#utility.yul\":694:820   */\n          swap2\n          swap1\n          pop\n          jump\t// out\n            /* \"#utility.yul\":826:922   */\n        tag_14:\n            /* \"#utility.yul\":863:870   */\n          0x00\n            /* \"#utility.yul\":892:916   */\n          tag_29\n            /* \"#utility.yul\":910:915   */\n          dup3\n            /* \"#utility.yul\":892:916   */\n          tag_13\n          jump\t// in\n        tag_29:\n            /* \"#utility.yul\":881:916   */\n          swap1\n          pop\n            /* \"#utility.yul\":826:922   */\n          swap2\n          swap1\n          pop\n          jump\t// out\n            /* \"#utility.yul\":928:1050   */\n        tag_15:\n            /* \"#utility.yul\":1001:1025   */\n          tag_31\n            /* \"#utility.yul\":1019:1024   */\n          dup2\n            /* \"#utility.yul\":1001:1025   */\n          tag_14\n          jump\t// in\n        tag_31:\n            /* \"#utility.yul\":994:999   */\n          dup2\n            /* \"#utility.yul\":991:1026   */\n          eq\n            /* \"#utility.yul\":981:1044   */\n          tag_32\n          jumpi\n            /* \"#utility.yul\":1040:1041   */\n          0x00\n            /* \"#utility.yul\":1037:1038   */\n          dup1\n            /* \"#utility.yul\":1030:1042   */\n          revert\n            /* \"#utility.yul\":981:1044   */\n        tag_32:\n            /* \"#utility.yul\":928:1050   */\n          pop\n          jump\t// out\n            /* \"#utility.yul\":1056:1199   */\n        tag_16:\n            /* \"#utility.yul\":1113:1118   */\n          0x00\n            /* \"#utility.yul\":1144:1150   */\n          dup2\n            /* \"#utility.yul\":1138:1151   */\n          mload\n            /* \"#utility.yul\":1129:1151   */\n          swap1\n          pop\n            /* \"#utility.yul\":1160:1193   */\n          tag_34\n            /* \"#utility.yul\":1187:1192   */\n          dup2\n            /* \"#utility.yul\":1160:1193   */\n          tag_15\n          jump\t// in\n        tag_34:\n            /* \"#utility.yul\":1056:1199   */\n          swap3\n          swap2\n          pop\n          pop\n          jump\t// out\n            /* \"#utility.yul\":1205:1712   */\n        tag_3:\n            /* \"#utility.yul\":1284:1290   */\n          0x00\n            /* \"#utility.yul\":1292:1298   */\n          dup1\n            /* \"#utility.yul\":1341:1343   */\n          0x40\n            /* \"#utility.yul\":1329:1338   */\n          dup4\n            /* \"#utility.yul\":1320:1327   */\n          dup6\n            /* \"#utility.yul\":1316:1339   */\n          sub\n            /* \"#utility.yul\":1312:1344   */\n          slt\n            /* \"#utility.yul\":1309:1428   */\n          iszero\n          tag_36\n          jumpi\n            /* \"#utility.yul\":1347:1426   */\n          tag_37\n          tag_8\n          jump\t// in\n        tag_37:\n            /* \"#utility.yul\":1309:1428   */\n        tag_36:\n            /* \"#utility.yul\":1467:1468   */\n          0x00\n            /* \"#utility.yul\":1492:1556   */\n          tag_38\n            /* \"#utility.yul\":1548:1555   */\n          dup6\n            /* \"#utility.yul\":1539:1545   */\n          dup3\n            /* \"#utility.yul\":1528:1537   */\n          dup7\n            /* \"#utility.yul\":1524:1546   */\n          add\n            /* \"#utility.yul\":1492:1556   */\n          tag_12\n          jump\t// in\n        tag_38:\n            /* \"#utility.yul\":1482:1556   */\n          swap3\n          pop\n            /* \"#utility.yul\":1438:1566   */\n          pop\n            /* \"#utility.yul\":1605:1607   */\n          0x20\n            /* \"#utility.yul\":1631:1695   */\n          tag_39\n            /* \"#utility.yul\":1687:1694   */\n          dup6\n            /* \"#utility.yul\":1678:1684   */\n          dup3\n            /* \"#utility.yul\":1667:1676   */\n          dup7\n            /* \"#utility.yul\":1663:1685   */\n          add\n            /* \"#utility.yul\":1631:1695   */\n          tag_16\n          jump\t// in\n        tag_39:\n            /* \"#utility.yul\":1621:1695   */\n          swap2\n          pop\n            /* \"#utility.yul\":1576:1705   */\n          pop\n            /* \"#utility.yul\":1205:1712   */\n          swap3\n          pop\n          swap3\n          swap1\n          pop\n          jump\t// out\n            /* \"Campaign.sol\":409:2196  contract Campaign {... */\n        tag_6:\n          dataSize(sub_0)\n          dup1\n          dataOffset(sub_0)\n          0x00\n          codecopy\n          0x00\n          return\n        stop\n\n        sub_0: assembly {\n                /* \"Campaign.sol\":409:2196  contract Campaign {... */\n              mstore(0x40, 0x80)\n              jumpi(tag_1, lt(calldatasize, 0x04))\n              shr(0xe0, calldataload(0x00))\n              dup1\n              0x81d12c58\n              gt\n              tag_11\n              jumpi\n              dup1\n              0x81d12c58\n              eq\n              tag_6\n              jumpi\n              dup1\n              0x8810c6d9\n              eq\n              tag_7\n              jumpi\n              dup1\n              0x937e09b1\n              eq\n              tag_8\n              jumpi\n              dup1\n              0xd7bb99ba\n              eq\n              tag_9\n              jumpi\n              dup1\n              0xd7d1bbdb\n              eq\n              tag_10\n              jumpi\n              jump(tag_1)\n            tag_11:\n              dup1\n              0x03441006\n              eq\n              tag_2\n              jumpi\n              dup1\n              0x1f6d4942\n              eq\n              tag_3\n              jumpi\n              dup1\n              0x481c6a75\n              eq\n              tag_4\n              jumpi\n              dup1\n              0x7569b3d7\n              eq\n              tag_5\n              jumpi\n            tag_1:\n              0x00\n              dup1\n              revert\n                /* \"Campaign.sol\":1598:1911  function finalizeRequest(uint256 index) public restricted {... */\n            tag_2:\n              callvalue\n              dup1\n              iszero\n              tag_12\n              jumpi\n              0x00\n              dup1\n              revert\n            tag_12:\n              pop\n              tag_13\n              0x04\n              dup1\n              calldatasize\n              sub\n              dup2\n              add\n              swap1\n              tag_14\n              swap2\n              swap1\n              tag_15\n              jump\t// in\n            tag_14:\n              tag_16\n              jump\t// in\n            tag_13:\n              stop\n                /* \"Campaign.sol\":737:781  mapping(address => bool) public contributors */\n            tag_3:\n              callvalue\n              dup1\n              iszero\n              tag_17\n              jumpi\n              0x00\n              dup1\n              revert\n            tag_17:\n              pop\n              tag_18\n              0x04\n              dup1\n              calldatasize\n              sub\n              dup2\n              add\n              swap1\n              tag_19\n              swap2\n              swap1\n              tag_20\n              jump\t// in\n            tag_19:\n              tag_21\n              jump\t// in\n            tag_18:\n              mload(0x40)\n              tag_22\n              swap2\n              swap1\n              tag_23\n              jump\t// in\n            tag_22:\n              mload(0x40)\n              dup1\n              swap2\n              sub\n              swap1\n              return\n                /* \"Campaign.sol\":638:660  address public manager */\n            tag_4:\n              callvalue\n              dup1\n              iszero\n              tag_24\n              jumpi\n              0x00\n              dup1\n              revert\n            tag_24:\n              pop\n              tag_25\n              tag_26\n              jump\t// in\n            tag_25:\n              mload(0x40)\n              tag_27\n              swap2\n              swap1\n              tag_28\n              jump\t// in\n            tag_27:\n              mload(0x40)\n              dup1\n              swap2\n              sub\n              swap1\n              return\n                /* \"Campaign.sol\":787:819  uint256 public contributorsCount */\n            tag_5:\n              callvalue\n              dup1\n              iszero\n              tag_29\n              jumpi\n              0x00\n              dup1\n              revert\n            tag_29:\n              pop\n              tag_30\n              tag_31\n              jump\t// in\n            tag_30:\n              mload(0x40)\n              tag_32\n              swap2\n              swap1\n              tag_33\n              jump\t// in\n            tag_32:\n              mload(0x40)\n              dup1\n              swap2\n              sub\n              swap1\n              return\n                /* \"Campaign.sol\":706:731  Request[] public requests */\n            tag_6:\n              callvalue\n              dup1\n              iszero\n              tag_34\n              jumpi\n              0x00\n              dup1\n              revert\n            tag_34:\n              pop\n              tag_35\n              0x04\n              dup1\n              calldatasize\n              sub\n              dup2\n              add\n              swap1\n              tag_36\n              swap2\n              swap1\n              tag_15\n              jump\t// in\n            tag_36:\n              tag_37\n              jump\t// in\n            tag_35:\n              mload(0x40)\n              tag_38\n              swap6\n              swap5\n              swap4\n              swap3\n              swap2\n              swap1\n              tag_39\n              jump\t// in\n            tag_38:\n              mload(0x40)\n              dup1\n              swap2\n              sub\n              swap1\n              return\n                /* \"Campaign.sol\":1223:1592  function createSpendingRequest(... */\n            tag_7:\n              callvalue\n              dup1\n              iszero\n              tag_40\n              jumpi\n              0x00\n              dup1\n              revert\n            tag_40:\n              pop\n              tag_41\n              0x04\n              dup1\n              calldatasize\n              sub\n              dup2\n              add\n              swap1\n              tag_42\n              swap2\n              swap1\n              tag_43\n              jump\t// in\n            tag_42:\n              tag_44\n              jump\t// in\n            tag_41:\n              stop\n                /* \"Campaign.sol\":666:700  uint256 public minimumContribution */\n            tag_8:\n              callvalue\n              dup1\n              iszero\n              tag_45\n              jumpi\n              0x00\n              dup1\n              revert\n            tag_45:\n              pop\n              tag_46\n              tag_47\n              jump\t// in\n            tag_46:\n              mload(0x40)\n              tag_48\n              swap2\n              swap1\n              tag_33\n              jump\t// in\n            tag_48:\n              mload(0x40)\n              dup1\n              swap2\n              sub\n              swap1\n              return\n                /* \"Campaign.sol\":1053:1217  function contribute() public payable {... */\n            tag_9:\n              tag_49\n              tag_50\n              jump\t// in\n            tag_49:\n              stop\n                /* \"Campaign.sol\":1917:2194  function approveRequest(uint256 index) public {... */\n            tag_10:\n              callvalue\n              dup1\n              iszero\n              tag_51\n              jumpi\n              0x00\n              dup1\n              revert\n            tag_51:\n              pop\n              tag_52\n              0x04\n              dup1\n              calldatasize\n              sub\n              dup2\n              add\n              swap1\n              tag_53\n              swap2\n              swap1\n              tag_15\n              jump\t// in\n            tag_53:\n              tag_54\n              jump\t// in\n            tag_52:\n              stop\n                /* \"Campaign.sol\":1598:1911  function finalizeRequest(uint256 index) public restricted {... */\n            tag_16:\n                /* \"Campaign.sol\":1021:1028  manager */\n              0x00\n              dup1\n              sload\n              swap1\n              0x0100\n              exp\n              swap1\n              div\n              0xffffffffffffffffffffffffffffffffffffffff\n              and\n                /* \"Campaign.sol\":1007:1028  msg.sender == manager */\n              0xffffffffffffffffffffffffffffffffffffffff\n              and\n                /* \"Campaign.sol\":1007:1017  msg.sender */\n              caller\n                /* \"Campaign.sol\":1007:1028  msg.sender == manager */\n              0xffffffffffffffffffffffffffffffffffffffff\n              and\n              eq\n                /* \"Campaign.sol\":999:1029  require(msg.sender == manager) */\n              tag_56\n              jumpi\n              0x00\n              dup1\n              revert\n            tag_56:\n                /* \"Campaign.sol\":1666:1689  Request storage request */\n              0x00\n                /* \"Campaign.sol\":1692:1700  requests */\n              0x02\n                /* \"Campaign.sol\":1701:1706  index */\n              dup3\n                /* \"Campaign.sol\":1692:1707  requests[index] */\n              dup2\n              sload\n              dup2\n              lt\n              tag_58\n              jumpi\n              tag_59\n              tag_60\n              jump\t// in\n            tag_59:\n            tag_58:\n              swap1\n              0x00\n              mstore\n              keccak256(0x00, 0x20)\n              swap1\n              0x05\n              mul\n              add\n                /* \"Campaign.sol\":1666:1707  Request storage request = requests[index] */\n              swap1\n              pop\n                /* \"Campaign.sol\":1726:1733  request */\n              dup1\n                /* \"Campaign.sol\":1726:1742  request.complete */\n              0x02\n              add\n              0x14\n              swap1\n              sload\n              swap1\n              0x0100\n              exp\n              swap1\n              div\n              0xff\n              and\n                /* \"Campaign.sol\":1725:1742  !request.complete */\n              iszero\n                /* \"Campaign.sol\":1717:1743  require(!request.complete) */\n              tag_62\n              jumpi\n              0x00\n              dup1\n              revert\n            tag_62:\n                /* \"Campaign.sol\":1807:1808  2 */\n              0x02\n                /* \"Campaign.sol\":1787:1804  contributorsCount */\n              sload(0x04)\n                /* \"Campaign.sol\":1787:1808  contributorsCount / 2 */\n              tag_63\n              swap2\n              swap1\n              tag_64\n              jump\t// in\n            tag_63:\n                /* \"Campaign.sol\":1761:1768  request */\n              dup2\n                /* \"Campaign.sol\":1761:1783  request.approversCount */\n              0x04\n              add\n              sload\n                /* \"Campaign.sol\":1761:1809  request.approversCount > (contributorsCount / 2) */\n              gt\n                /* \"Campaign.sol\":1753:1810  require(request.approversCount > (contributorsCount / 2)) */\n              tag_65\n              jumpi\n              0x00\n              dup1\n              revert\n            tag_65:\n                /* \"Campaign.sol\":1829:1836  request */\n              dup1\n                /* \"Campaign.sol\":1829:1846  request.recepient */\n              0x02\n              add\n              0x00\n              swap1\n              sload\n              swap1\n              0x0100\n              exp\n              swap1\n              div\n              0xffffffffffffffffffffffffffffffffffffffff\n              and\n                /* \"Campaign.sol\":1821:1856  payable(request.recepient).transfer */\n              0xffffffffffffffffffffffffffffffffffffffff\n              and\n                /* \"Campaign.sol\":1821:1871  payable(request.recepient).transfer(request.value) */\n              0x08fc\n                /* \"Campaign.sol\":1857:1864  request */\n              dup3\n                /* \"Campaign.sol\":1857:1870  request.value */\n              0x01\n              add\n              sload\n                /* \"Campaign.sol\":1821:1871  payable(request.recepient).transfer(request.value) */\n              swap1\n              dup2\n              iszero\n              mul\n              swap1\n              mload(0x40)\n              0x00\n              mload(0x40)\n              dup1\n              dup4\n              sub\n              dup2\n              dup6\n              dup9\n              dup9\n              call\n              swap4\n              pop\n              pop\n              pop\n              pop\n              iszero\n              dup1\n              iszero\n              tag_67\n              jumpi\n              returndatasize\n              0x00\n              dup1\n              returndatacopy\n              revert(0x00, returndatasize)\n            tag_67:\n              pop\n                /* \"Campaign.sol\":1900:1904  true */\n              0x01\n                /* \"Campaign.sol\":1881:1888  request */\n              dup2\n                /* \"Campaign.sol\":1881:1897  request.complete */\n              0x02\n              add\n              0x14\n                /* \"Campaign.sol\":1881:1904  request.complete = true */\n              0x0100\n              exp\n              dup2\n              sload\n              dup2\n              0xff\n              mul\n              not\n              and\n              swap1\n              dup4\n              iszero\n              iszero\n              mul\n              or\n              swap1\n              sstore\n              pop\n                /* \"Campaign.sol\":1656:1911  {... */\n              pop\n                /* \"Campaign.sol\":1598:1911  function finalizeRequest(uint256 index) public restricted {... */\n              pop\n              jump\t// out\n                /* \"Campaign.sol\":737:781  mapping(address => bool) public contributors */\n            tag_21:\n              mstore(0x20, 0x03)\n              dup1\n              0x00\n              mstore\n              keccak256(0x00, 0x40)\n              0x00\n              swap2\n              pop\n              sload\n              swap1\n              0x0100\n              exp\n              swap1\n              div\n              0xff\n              and\n              dup2\n              jump\t// out\n                /* \"Campaign.sol\":638:660  address public manager */\n            tag_26:\n              0x00\n              dup1\n              sload\n              swap1\n              0x0100\n              exp\n              swap1\n              div\n              0xffffffffffffffffffffffffffffffffffffffff\n              and\n              dup2\n              jump\t// out\n                /* \"Campaign.sol\":787:819  uint256 public contributorsCount */\n            tag_31:\n              sload(0x04)\n              dup2\n              jump\t// out\n                /* \"Campaign.sol\":706:731  Request[] public requests */\n            tag_37:\n              0x02\n              dup2\n              dup2\n              sload\n              dup2\n              lt\n              tag_68\n              jumpi\n              0x00\n              dup1\n              revert\n            tag_68:\n              swap1\n              0x00\n              mstore\n              keccak256(0x00, 0x20)\n              swap1\n              0x05\n              mul\n              add\n              0x00\n              swap2\n              pop\n              swap1\n              pop\n              dup1\n              0x00\n              add\n              dup1\n              sload\n              tag_70\n              swap1\n              tag_71\n              jump\t// in\n            tag_70:\n              dup1\n              0x1f\n              add\n              0x20\n              dup1\n              swap2\n              div\n              mul\n              0x20\n              add\n              mload(0x40)\n              swap1\n              dup2\n              add\n              0x40\n              mstore\n              dup1\n              swap3\n              swap2\n              swap1\n              dup2\n              dup2\n              mstore\n              0x20\n              add\n              dup3\n              dup1\n              sload\n              tag_72\n              swap1\n              tag_71\n              jump\t// in\n            tag_72:\n              dup1\n              iszero\n              tag_73\n              jumpi\n              dup1\n              0x1f\n              lt\n              tag_74\n              jumpi\n              0x0100\n              dup1\n              dup4\n              sload\n              div\n              mul\n              dup4\n              mstore\n              swap2\n              0x20\n              add\n              swap2\n              jump(tag_73)\n            tag_74:\n              dup3\n              add\n              swap2\n              swap1\n              0x00\n              mstore\n              keccak256(0x00, 0x20)\n              swap1\n            tag_75:\n              dup2\n              sload\n              dup2\n              mstore\n              swap1\n              0x01\n              add\n              swap1\n              0x20\n              add\n              dup1\n              dup4\n              gt\n              tag_75\n              jumpi\n              dup3\n              swap1\n              sub\n              0x1f\n              and\n              dup3\n              add\n              swap2\n            tag_73:\n              pop\n              pop\n              pop\n              pop\n              pop\n              swap1\n              dup1\n              0x01\n              add\n              sload\n              swap1\n              dup1\n              0x02\n              add\n              0x00\n              swap1\n              sload\n              swap1\n              0x0100\n              exp\n              swap1\n              div\n              0xffffffffffffffffffffffffffffffffffffffff\n              and\n              swap1\n              dup1\n              0x02\n              add\n              0x14\n              swap1\n              sload\n              swap1\n              0x0100\n              exp\n              swap1\n              div\n              0xff\n              and\n              swap1\n              dup1\n              0x04\n              add\n              sload\n              swap1\n              pop\n              dup6\n              jump\t// out\n                /* \"Campaign.sol\":1223:1592  function createSpendingRequest(... */\n            tag_44:\n                /* \"Campaign.sol\":1021:1028  manager */\n              0x00\n              dup1\n              sload\n              swap1\n              0x0100\n              exp\n              swap1\n              div\n              0xffffffffffffffffffffffffffffffffffffffff\n              and\n                /* \"Campaign.sol\":1007:1028  msg.sender == manager */\n              0xffffffffffffffffffffffffffffffffffffffff\n              and\n                /* \"Campaign.sol\":1007:1017  msg.sender */\n              caller\n                /* \"Campaign.sol\":1007:1028  msg.sender == manager */\n              0xffffffffffffffffffffffffffffffffffffffff\n              and\n              eq\n                /* \"Campaign.sol\":999:1029  require(msg.sender == manager) */\n              tag_77\n              jumpi\n              0x00\n              dup1\n              revert\n            tag_77:\n                /* \"Campaign.sol\":1368:1391  Request storage request */\n              0x00\n                /* \"Campaign.sol\":1394:1402  requests */\n              0x02\n                /* \"Campaign.sol\":1394:1409  requests.push() */\n              0x01\n              dup2\n              0x01\n              dup2\n              sload\n              add\n              dup1\n              dup3\n              sstore\n              dup1\n              swap2\n              pop\n              pop\n              sub\n              swap1\n              0x00\n              mstore\n              keccak256(0x00, 0x20)\n              swap1\n              0x05\n              mul\n              add\n                /* \"Campaign.sol\":1368:1409  Request storage request = requests.push() */\n              swap1\n              pop\n                /* \"Campaign.sol\":1441:1445  desc */\n              dup5\n              dup5\n                /* \"Campaign.sol\":1419:1426  request */\n              dup3\n                /* \"Campaign.sol\":1419:1438  request.description */\n              0x00\n              add\n                /* \"Campaign.sol\":1419:1445  request.description = desc */\n              swap2\n              swap1\n              tag_80\n              swap3\n              swap2\n              swap1\n              tag_81\n              jump\t// in\n            tag_80:\n              pop\n                /* \"Campaign.sol\":1471:1476  value */\n              dup3\n                /* \"Campaign.sol\":1455:1462  request */\n              dup2\n                /* \"Campaign.sol\":1455:1468  request.value */\n              0x01\n              add\n                /* \"Campaign.sol\":1455:1476  request.value = value */\n              dup2\n              swap1\n              sstore\n              pop\n                /* \"Campaign.sol\":1506:1515  recepient */\n              dup2\n                /* \"Campaign.sol\":1486:1493  request */\n              dup2\n                /* \"Campaign.sol\":1486:1503  request.recepient */\n              0x02\n              add\n              0x00\n                /* \"Campaign.sol\":1486:1515  request.recepient = recepient */\n              0x0100\n              exp\n              dup2\n              sload\n              dup2\n              0xffffffffffffffffffffffffffffffffffffffff\n              mul\n              not\n              and\n              swap1\n              dup4\n              0xffffffffffffffffffffffffffffffffffffffff\n              and\n              mul\n              or\n              swap1\n              sstore\n              pop\n                /* \"Campaign.sol\":1544:1549  false */\n              0x00\n                /* \"Campaign.sol\":1525:1532  request */\n              dup2\n                /* \"Campaign.sol\":1525:1541  request.complete */\n              0x02\n              add\n              0x14\n                /* \"Campaign.sol\":1525:1549  request.complete = false */\n              0x0100\n              exp\n              dup2\n              sload\n              dup2\n              0xff\n              mul\n              not\n              and\n              swap1\n              dup4\n              iszero\n              iszero\n              mul\n              or\n              swap1\n              sstore\n              pop\n                /* \"Campaign.sol\":1584:1585  0 */\n              0x00\n                /* \"Campaign.sol\":1559:1566  request */\n              dup2\n                /* \"Campaign.sol\":1559:1581  request.approversCount */\n              0x04\n              add\n                /* \"Campaign.sol\":1559:1585  request.approversCount = 0 */\n              dup2\n              swap1\n              sstore\n              pop\n                /* \"Campaign.sol\":1358:1592  {... */\n              pop\n                /* \"Campaign.sol\":1223:1592  function createSpendingRequest(... */\n              pop\n              pop\n              pop\n              pop\n              jump\t// out\n                /* \"Campaign.sol\":666:700  uint256 public minimumContribution */\n            tag_47:\n              sload(0x01)\n              dup2\n              jump\t// out\n                /* \"Campaign.sol\":1053:1217  function contribute() public payable {... */\n            tag_50:\n                /* \"Campaign.sol\":1120:1139  minimumContribution */\n              sload(0x01)\n                /* \"Campaign.sol\":1108:1117  msg.value */\n              callvalue\n                /* \"Campaign.sol\":1108:1139  msg.value > minimumContribution */\n              gt\n                /* \"Campaign.sol\":1100:1140  require(msg.value > minimumContribution) */\n              tag_83\n              jumpi\n              0x00\n              dup1\n              revert\n            tag_83:\n                /* \"Campaign.sol\":1177:1181  true */\n              0x01\n                /* \"Campaign.sol\":1150:1162  contributors */\n              0x03\n                /* \"Campaign.sol\":1150:1174  contributors[msg.sender] */\n              0x00\n                /* \"Campaign.sol\":1163:1173  msg.sender */\n              caller\n                /* \"Campaign.sol\":1150:1174  contributors[msg.sender] */\n              0xffffffffffffffffffffffffffffffffffffffff\n              and\n              0xffffffffffffffffffffffffffffffffffffffff\n              and\n              dup2\n              mstore\n              0x20\n              add\n              swap1\n              dup2\n              mstore\n              0x20\n              add\n              0x00\n              keccak256\n              0x00\n                /* \"Campaign.sol\":1150:1181  contributors[msg.sender] = true */\n              0x0100\n              exp\n              dup2\n              sload\n              dup2\n              0xff\n              mul\n              not\n              and\n              swap1\n              dup4\n              iszero\n              iszero\n              mul\n              or\n              swap1\n              sstore\n              pop\n                /* \"Campaign.sol\":1191:1208  contributorsCount */\n              0x04\n              0x00\n                /* \"Campaign.sol\":1191:1210  contributorsCount++ */\n              dup2\n              sload\n              dup1\n              swap3\n              swap2\n              swap1\n              tag_84\n              swap1\n              tag_85\n              jump\t// in\n            tag_84:\n              swap2\n              swap1\n              pop\n              sstore\n              pop\n                /* \"Campaign.sol\":1053:1217  function contribute() public payable {... */\n              jump\t// out\n                /* \"Campaign.sol\":1917:2194  function approveRequest(uint256 index) public {... */\n            tag_54:\n                /* \"Campaign.sol\":1973:1996  Request storage request */\n              0x00\n                /* \"Campaign.sol\":1999:2007  requests */\n              0x02\n                /* \"Campaign.sol\":2008:2013  index */\n              dup3\n                /* \"Campaign.sol\":1999:2014  requests[index] */\n              dup2\n              sload\n              dup2\n              lt\n              tag_87\n              jumpi\n              tag_88\n              tag_60\n              jump\t// in\n            tag_88:\n            tag_87:\n              swap1\n              0x00\n              mstore\n              keccak256(0x00, 0x20)\n              swap1\n              0x05\n              mul\n              add\n                /* \"Campaign.sol\":1973:2014  Request storage request = requests[index] */\n              swap1\n              pop\n                /* \"Campaign.sol\":2032:2044  contributors */\n              0x03\n                /* \"Campaign.sol\":2032:2056  contributors[msg.sender] */\n              0x00\n                /* \"Campaign.sol\":2045:2055  msg.sender */\n              caller\n                /* \"Campaign.sol\":2032:2056  contributors[msg.sender] */\n              0xffffffffffffffffffffffffffffffffffffffff\n              and\n              0xffffffffffffffffffffffffffffffffffffffff\n              and\n              dup2\n              mstore\n              0x20\n              add\n              swap1\n              dup2\n              mstore\n              0x20\n              add\n              0x00\n              keccak256\n              0x00\n              swap1\n              sload\n              swap1\n              0x0100\n              exp\n              swap1\n              div\n              0xff\n              and\n                /* \"Campaign.sol\":2024:2057  require(contributors[msg.sender]) */\n              tag_90\n              jumpi\n              0x00\n              dup1\n              revert\n            tag_90:\n                /* \"Campaign.sol\":2076:2083  request */\n              dup1\n                /* \"Campaign.sol\":2076:2093  request.approvers */\n              0x03\n              add\n                /* \"Campaign.sol\":2076:2105  request.approvers[msg.sender] */\n              0x00\n                /* \"Campaign.sol\":2094:2104  msg.sender */\n              caller\n                /* \"Campaign.sol\":2076:2105  request.approvers[msg.sender] */\n              0xffffffffffffffffffffffffffffffffffffffff\n              and\n              0xffffffffffffffffffffffffffffffffffffffff\n              and\n              dup2\n              mstore\n              0x20\n              add\n              swap1\n              dup2\n              mstore\n              0x20\n              add\n              0x00\n              keccak256\n              0x00\n              swap1\n              sload\n              swap1\n              0x0100\n              exp\n              swap1\n              div\n              0xff\n              and\n                /* \"Campaign.sol\":2075:2105  !request.approvers[msg.sender] */\n              iszero\n                /* \"Campaign.sol\":2067:2106  require(!request.approvers[msg.sender]) */\n              tag_91\n              jumpi\n              0x00\n              dup1\n              revert\n            tag_91:\n                /* \"Campaign.sol\":2149:2153  true */\n              0x01\n                /* \"Campaign.sol\":2117:2124  request */\n              dup2\n                /* \"Campaign.sol\":2117:2134  request.approvers */\n              0x03\n              add\n                /* \"Campaign.sol\":2117:2146  request.approvers[msg.sender] */\n              0x00\n                /* \"Campaign.sol\":2135:2145  msg.sender */\n              caller\n                /* \"Campaign.sol\":2117:2146  request.approvers[msg.sender] */\n              0xffffffffffffffffffffffffffffffffffffffff\n              and\n              0xffffffffffffffffffffffffffffffffffffffff\n              and\n              dup2\n              mstore\n              0x20\n              add\n              swap1\n              dup2\n              mstore\n              0x20\n              add\n              0x00\n              keccak256\n              0x00\n                /* \"Campaign.sol\":2117:2153  request.approvers[msg.sender] = true */\n              0x0100\n              exp\n              dup2\n              sload\n              dup2\n              0xff\n              mul\n              not\n              and\n              swap1\n              dup4\n              iszero\n              iszero\n              mul\n              or\n              swap1\n              sstore\n              pop\n                /* \"Campaign.sol\":2163:2170  request */\n              dup1\n                /* \"Campaign.sol\":2163:2185  request.approversCount */\n              0x04\n              add\n              0x00\n                /* \"Campaign.sol\":2163:2187  request.approversCount++ */\n              dup2\n              sload\n              dup1\n              swap3\n              swap2\n              swap1\n              tag_92\n              swap1\n              tag_85\n              jump\t// in\n            tag_92:\n              swap2\n              swap1\n              pop\n              sstore\n              pop\n                /* \"Campaign.sol\":1963:2194  {... */\n              pop\n                /* \"Campaign.sol\":1917:2194  function approveRequest(uint256 index) public {... */\n              pop\n              jump\t// out\n            tag_81:\n              dup3\n              dup1\n              sload\n              tag_93\n              swap1\n              tag_71\n              jump\t// in\n            tag_93:\n              swap1\n              0x00\n              mstore\n              keccak256(0x00, 0x20)\n              swap1\n              0x1f\n              add\n              0x20\n              swap1\n              div\n              dup2\n              add\n              swap3\n              dup3\n              tag_95\n              jumpi\n              0x00\n              dup6\n              sstore\n              jump(tag_94)\n            tag_95:\n              dup3\n              0x1f\n              lt\n              tag_96\n              jumpi\n              dup1\n              calldataload\n              not(0xff)\n              and\n              dup4\n              dup1\n              add\n              or\n              dup6\n              sstore\n              jump(tag_94)\n            tag_96:\n              dup3\n              dup1\n              add\n              0x01\n              add\n              dup6\n              sstore\n              dup3\n              iszero\n              tag_94\n              jumpi\n              swap2\n              dup3\n              add\n            tag_97:\n              dup3\n              dup2\n              gt\n              iszero\n              tag_98\n              jumpi\n              dup3\n              calldataload\n              dup3\n              sstore\n              swap2\n              0x20\n              add\n              swap2\n              swap1\n              0x01\n              add\n              swap1\n              jump(tag_97)\n            tag_98:\n            tag_94:\n              pop\n              swap1\n              pop\n              tag_99\n              swap2\n              swap1\n              tag_100\n              jump\t// in\n            tag_99:\n              pop\n              swap1\n              jump\t// out\n            tag_100:\n            tag_101:\n              dup1\n              dup3\n              gt\n              iszero\n              tag_102\n              jumpi\n              0x00\n              dup2\n              0x00\n              swap1\n              sstore\n              pop\n              0x01\n              add\n              jump(tag_101)\n            tag_102:\n              pop\n              swap1\n              jump\t// out\n                /* \"#utility.yul\":88:205   */\n            tag_104:\n                /* \"#utility.yul\":197:198   */\n              0x00\n                /* \"#utility.yul\":194:195   */\n              dup1\n                /* \"#utility.yul\":187:199   */\n              revert\n                /* \"#utility.yul\":211:328   */\n            tag_105:\n                /* \"#utility.yul\":320:321   */\n              0x00\n                /* \"#utility.yul\":317:318   */\n              dup1\n                /* \"#utility.yul\":310:322   */\n              revert\n                /* \"#utility.yul\":334:411   */\n            tag_106:\n                /* \"#utility.yul\":371:378   */\n              0x00\n                /* \"#utility.yul\":400:405   */\n              dup2\n                /* \"#utility.yul\":389:405   */\n              swap1\n              pop\n                /* \"#utility.yul\":334:411   */\n              swap2\n              swap1\n              pop\n              jump\t// out\n                /* \"#utility.yul\":417:539   */\n            tag_107:\n                /* \"#utility.yul\":490:514   */\n              tag_135\n                /* \"#utility.yul\":508:513   */\n              dup2\n                /* \"#utility.yul\":490:514   */\n              tag_106\n              jump\t// in\n            tag_135:\n                /* \"#utility.yul\":483:488   */\n              dup2\n                /* \"#utility.yul\":480:515   */\n              eq\n                /* \"#utility.yul\":470:533   */\n              tag_136\n              jumpi\n                /* \"#utility.yul\":529:530   */\n              0x00\n                /* \"#utility.yul\":526:527   */\n              dup1\n                /* \"#utility.yul\":519:531   */\n              revert\n                /* \"#utility.yul\":470:533   */\n            tag_136:\n                /* \"#utility.yul\":417:539   */\n              pop\n              jump\t// out\n                /* \"#utility.yul\":545:684   */\n            tag_108:\n                /* \"#utility.yul\":591:596   */\n              0x00\n                /* \"#utility.yul\":629:635   */\n              dup2\n                /* \"#utility.yul\":616:636   */\n              calldataload\n                /* \"#utility.yul\":607:636   */\n              swap1\n              pop\n                /* \"#utility.yul\":645:678   */\n              tag_138\n                /* \"#utility.yul\":672:677   */\n              dup2\n                /* \"#utility.yul\":645:678   */\n              tag_107\n              jump\t// in\n            tag_138:\n                /* \"#utility.yul\":545:684   */\n              swap3\n              swap2\n              pop\n              pop\n              jump\t// out\n                /* \"#utility.yul\":690:1019   */\n            tag_15:\n                /* \"#utility.yul\":749:755   */\n              0x00\n                /* \"#utility.yul\":798:800   */\n              0x20\n                /* \"#utility.yul\":786:795   */\n              dup3\n                /* \"#utility.yul\":777:784   */\n              dup5\n                /* \"#utility.yul\":773:796   */\n              sub\n                /* \"#utility.yul\":769:801   */\n              slt\n                /* \"#utility.yul\":766:885   */\n              iszero\n              tag_140\n              jumpi\n                /* \"#utility.yul\":804:883   */\n              tag_141\n              tag_104\n              jump\t// in\n            tag_141:\n                /* \"#utility.yul\":766:885   */\n            tag_140:\n                /* \"#utility.yul\":924:925   */\n              0x00\n                /* \"#utility.yul\":949:1002   */\n              tag_142\n                /* \"#utility.yul\":994:1001   */\n              dup5\n                /* \"#utility.yul\":985:991   */\n              dup3\n                /* \"#utility.yul\":974:983   */\n              dup6\n                /* \"#utility.yul\":970:992   */\n              add\n                /* \"#utility.yul\":949:1002   */\n              tag_108\n              jump\t// in\n            tag_142:\n                /* \"#utility.yul\":939:1002   */\n              swap2\n              pop\n                /* \"#utility.yul\":895:1012   */\n              pop\n                /* \"#utility.yul\":690:1019   */\n              swap3\n              swap2\n              pop\n              pop\n              jump\t// out\n                /* \"#utility.yul\":1025:1151   */\n            tag_109:\n                /* \"#utility.yul\":1062:1069   */\n              0x00\n                /* \"#utility.yul\":1102:1144   */\n              0xffffffffffffffffffffffffffffffffffffffff\n                /* \"#utility.yul\":1095:1100   */\n              dup3\n                /* \"#utility.yul\":1091:1145   */\n              and\n                /* \"#utility.yul\":1080:1145   */\n              swap1\n              pop\n                /* \"#utility.yul\":1025:1151   */\n              swap2\n              swap1\n              pop\n              jump\t// out\n                /* \"#utility.yul\":1157:1253   */\n            tag_110:\n                /* \"#utility.yul\":1194:1201   */\n              0x00\n                /* \"#utility.yul\":1223:1247   */\n              tag_145\n                /* \"#utility.yul\":1241:1246   */\n              dup3\n                /* \"#utility.yul\":1223:1247   */\n              tag_109\n              jump\t// in\n            tag_145:\n                /* \"#utility.yul\":1212:1247   */\n              swap1\n              pop\n                /* \"#utility.yul\":1157:1253   */\n              swap2\n              swap1\n              pop\n              jump\t// out\n                /* \"#utility.yul\":1259:1381   */\n            tag_111:\n                /* \"#utility.yul\":1332:1356   */\n              tag_147\n                /* \"#utility.yul\":1350:1355   */\n              dup2\n                /* \"#utility.yul\":1332:1356   */\n              tag_110\n              jump\t// in\n            tag_147:\n                /* \"#utility.yul\":1325:1330   */\n              dup2\n                /* \"#utility.yul\":1322:1357   */\n              eq\n                /* \"#utility.yul\":1312:1375   */\n              tag_148\n              jumpi\n                /* \"#utility.yul\":1371:1372   */\n              0x00\n                /* \"#utility.yul\":1368:1369   */\n              dup1\n                /* \"#utility.yul\":1361:1373   */\n              revert\n                /* \"#utility.yul\":1312:1375   */\n            tag_148:\n                /* \"#utility.yul\":1259:1381   */\n              pop\n              jump\t// out\n                /* \"#utility.yul\":1387:1526   */\n            tag_112:\n                /* \"#utility.yul\":1433:1438   */\n              0x00\n                /* \"#utility.yul\":1471:1477   */\n              dup2\n                /* \"#utility.yul\":1458:1478   */\n              calldataload\n                /* \"#utility.yul\":1449:1478   */\n              swap1\n              pop\n                /* \"#utility.yul\":1487:1520   */\n              tag_150\n                /* \"#utility.yul\":1514:1519   */\n              dup2\n                /* \"#utility.yul\":1487:1520   */\n              tag_111\n              jump\t// in\n            tag_150:\n                /* \"#utility.yul\":1387:1526   */\n              swap3\n              swap2\n              pop\n              pop\n              jump\t// out\n                /* \"#utility.yul\":1532:1861   */\n            tag_20:\n                /* \"#utility.yul\":1591:1597   */\n              0x00\n                /* \"#utility.yul\":1640:1642   */\n              0x20\n                /* \"#utility.yul\":1628:1637   */\n              dup3\n                /* \"#utility.yul\":1619:1626   */\n              dup5\n                /* \"#utility.yul\":1615:1638   */\n              sub\n                /* \"#utility.yul\":1611:1643   */\n              slt\n                /* \"#utility.yul\":1608:1727   */\n              iszero\n              tag_152\n              jumpi\n                /* \"#utility.yul\":1646:1725   */\n              tag_153\n              tag_104\n              jump\t// in\n            tag_153:\n                /* \"#utility.yul\":1608:1727   */\n            tag_152:\n                /* \"#utility.yul\":1766:1767   */\n              0x00\n                /* \"#utility.yul\":1791:1844   */\n              tag_154\n                /* \"#utility.yul\":1836:1843   */\n              dup5\n                /* \"#utility.yul\":1827:1833   */\n              dup3\n                /* \"#utility.yul\":1816:1825   */\n              dup6\n                /* \"#utility.yul\":1812:1834   */\n              add\n                /* \"#utility.yul\":1791:1844   */\n              tag_112\n              jump\t// in\n            tag_154:\n                /* \"#utility.yul\":1781:1844   */\n              swap2\n              pop\n                /* \"#utility.yul\":1737:1854   */\n              pop\n                /* \"#utility.yul\":1532:1861   */\n              swap3\n              swap2\n              pop\n              pop\n              jump\t// out\n                /* \"#utility.yul\":1867:1957   */\n            tag_113:\n                /* \"#utility.yul\":1901:1908   */\n              0x00\n                /* \"#utility.yul\":1944:1949   */\n              dup2\n                /* \"#utility.yul\":1937:1950   */\n              iszero\n                /* \"#utility.yul\":1930:1951   */\n              iszero\n                /* \"#utility.yul\":1919:1951   */\n              swap1\n              pop\n                /* \"#utility.yul\":1867:1957   */\n              swap2\n              swap1\n              pop\n              jump\t// out\n                /* \"#utility.yul\":1963:2072   */\n            tag_114:\n                /* \"#utility.yul\":2044:2065   */\n              tag_157\n                /* \"#utility.yul\":2059:2064   */\n              dup2\n                /* \"#utility.yul\":2044:2065   */\n              tag_113\n              jump\t// in\n            tag_157:\n                /* \"#utility.yul\":2039:2042   */\n              dup3\n                /* \"#utility.yul\":2032:2066   */\n              mstore\n                /* \"#utility.yul\":1963:2072   */\n              pop\n              pop\n              jump\t// out\n                /* \"#utility.yul\":2078:2288   */\n            tag_23:\n                /* \"#utility.yul\":2165:2169   */\n              0x00\n                /* \"#utility.yul\":2203:2205   */\n              0x20\n                /* \"#utility.yul\":2192:2201   */\n              dup3\n                /* \"#utility.yul\":2188:2206   */\n              add\n                /* \"#utility.yul\":2180:2206   */\n              swap1\n              pop\n                /* \"#utility.yul\":2216:2281   */\n              tag_159\n                /* \"#utility.yul\":2278:2279   */\n              0x00\n                /* \"#utility.yul\":2267:2276   */\n              dup4\n                /* \"#utility.yul\":2263:2280   */\n              add\n                /* \"#utility.yul\":2254:2260   */\n              dup5\n                /* \"#utility.yul\":2216:2281   */\n              tag_114\n              jump\t// in\n            tag_159:\n                /* \"#utility.yul\":2078:2288   */\n              swap3\n              swap2\n              pop\n              pop\n              jump\t// out\n                /* \"#utility.yul\":2294:2412   */\n            tag_115:\n                /* \"#utility.yul\":2381:2405   */\n              tag_161\n                /* \"#utility.yul\":2399:2404   */\n              dup2\n                /* \"#utility.yul\":2381:2405   */\n              tag_110\n              jump\t// in\n            tag_161:\n                /* \"#utility.yul\":2376:2379   */\n              dup3\n                /* \"#utility.yul\":2369:2406   */\n              mstore\n                /* \"#utility.yul\":2294:2412   */\n              pop\n              pop\n              jump\t// out\n                /* \"#utility.yul\":2418:2640   */\n            tag_28:\n                /* \"#utility.yul\":2511:2515   */\n              0x00\n                /* \"#utility.yul\":2549:2551   */\n              0x20\n                /* \"#utility.yul\":2538:2547   */\n              dup3\n                /* \"#utility.yul\":2534:2552   */\n              add\n                /* \"#utility.yul\":2526:2552   */\n              swap1\n              pop\n                /* \"#utility.yul\":2562:2633   */\n              tag_163\n                /* \"#utility.yul\":2630:2631   */\n              0x00\n                /* \"#utility.yul\":2619:2628   */\n              dup4\n                /* \"#utility.yul\":2615:2632   */\n              add\n                /* \"#utility.yul\":2606:2612   */\n              dup5\n                /* \"#utility.yul\":2562:2633   */\n              tag_115\n              jump\t// in\n            tag_163:\n                /* \"#utility.yul\":2418:2640   */\n              swap3\n              swap2\n              pop\n              pop\n              jump\t// out\n                /* \"#utility.yul\":2646:2764   */\n            tag_116:\n                /* \"#utility.yul\":2733:2757   */\n              tag_165\n                /* \"#utility.yul\":2751:2756   */\n              dup2\n                /* \"#utility.yul\":2733:2757   */\n              tag_106\n              jump\t// in\n            tag_165:\n                /* \"#utility.yul\":2728:2731   */\n              dup3\n                /* \"#utility.yul\":2721:2758   */\n              mstore\n                /* \"#utility.yul\":2646:2764   */\n              pop\n              pop\n              jump\t// out\n                /* \"#utility.yul\":2770:2992   */\n            tag_33:\n                /* \"#utility.yul\":2863:2867   */\n              0x00\n                /* \"#utility.yul\":2901:2903   */\n              0x20\n                /* \"#utility.yul\":2890:2899   */\n              dup3\n                /* \"#utility.yul\":2886:2904   */\n              add\n                /* \"#utility.yul\":2878:2904   */\n              swap1\n              pop\n                /* \"#utility.yul\":2914:2985   */\n              tag_167\n                /* \"#utility.yul\":2982:2983   */\n              0x00\n                /* \"#utility.yul\":2971:2980   */\n              dup4\n                /* \"#utility.yul\":2967:2984   */\n              add\n                /* \"#utility.yul\":2958:2964   */\n              dup5\n                /* \"#utility.yul\":2914:2985   */\n              tag_116\n              jump\t// in\n            tag_167:\n                /* \"#utility.yul\":2770:2992   */\n              swap3\n              swap2\n              pop\n              pop\n              jump\t// out\n                /* \"#utility.yul\":2998:3097   */\n            tag_117:\n                /* \"#utility.yul\":3050:3056   */\n              0x00\n                /* \"#utility.yul\":3084:3089   */\n              dup2\n                /* \"#utility.yul\":3078:3090   */\n              mload\n                /* \"#utility.yul\":3068:3090   */\n              swap1\n              pop\n                /* \"#utility.yul\":2998:3097   */\n              swap2\n              swap1\n              pop\n              jump\t// out\n                /* \"#utility.yul\":3103:3272   */\n            tag_118:\n                /* \"#utility.yul\":3187:3198   */\n              0x00\n                /* \"#utility.yul\":3221:3227   */\n              dup3\n                /* \"#utility.yul\":3216:3219   */\n              dup3\n                /* \"#utility.yul\":3209:3228   */\n              mstore\n                /* \"#utility.yul\":3261:3265   */\n              0x20\n                /* \"#utility.yul\":3256:3259   */\n              dup3\n                /* \"#utility.yul\":3252:3266   */\n              add\n                /* \"#utility.yul\":3237:3266   */\n              swap1\n              pop\n                /* \"#utility.yul\":3103:3272   */\n              swap3\n              swap2\n              pop\n              pop\n              jump\t// out\n                /* \"#utility.yul\":3278:3585   */\n            tag_119:\n                /* \"#utility.yul\":3346:3347   */\n              0x00\n                /* \"#utility.yul\":3356:3469   */\n            tag_171:\n                /* \"#utility.yul\":3370:3376   */\n              dup4\n                /* \"#utility.yul\":3367:3368   */\n              dup2\n                /* \"#utility.yul\":3364:3377   */\n              lt\n                /* \"#utility.yul\":3356:3469   */\n              iszero\n              tag_173\n              jumpi\n                /* \"#utility.yul\":3455:3456   */\n              dup1\n                /* \"#utility.yul\":3450:3453   */\n              dup3\n                /* \"#utility.yul\":3446:3457   */\n              add\n                /* \"#utility.yul\":3440:3458   */\n              mload\n                /* \"#utility.yul\":3436:3437   */\n              dup2\n                /* \"#utility.yul\":3431:3434   */\n              dup5\n                /* \"#utility.yul\":3427:3438   */\n              add\n                /* \"#utility.yul\":3420:3459   */\n              mstore\n                /* \"#utility.yul\":3392:3394   */\n              0x20\n                /* \"#utility.yul\":3389:3390   */\n              dup2\n                /* \"#utility.yul\":3385:3395   */\n              add\n                /* \"#utility.yul\":3380:3395   */\n              swap1\n              pop\n                /* \"#utility.yul\":3356:3469   */\n              jump(tag_171)\n            tag_173:\n                /* \"#utility.yul\":3487:3493   */\n              dup4\n                /* \"#utility.yul\":3484:3485   */\n              dup2\n                /* \"#utility.yul\":3481:3494   */\n              gt\n                /* \"#utility.yul\":3478:3579   */\n              iszero\n              tag_174\n              jumpi\n                /* \"#utility.yul\":3567:3568   */\n              0x00\n                /* \"#utility.yul\":3558:3564   */\n              dup5\n                /* \"#utility.yul\":3553:3556   */\n              dup5\n                /* \"#utility.yul\":3549:3565   */\n              add\n                /* \"#utility.yul\":3542:3569   */\n              mstore\n                /* \"#utility.yul\":3478:3579   */\n            tag_174:\n                /* \"#utility.yul\":3327:3585   */\n              pop\n                /* \"#utility.yul\":3278:3585   */\n              pop\n              pop\n              pop\n              jump\t// out\n                /* \"#utility.yul\":3591:3693   */\n            tag_120:\n                /* \"#utility.yul\":3632:3638   */\n              0x00\n                /* \"#utility.yul\":3683:3685   */\n              0x1f\n                /* \"#utility.yul\":3679:3686   */\n              not\n                /* \"#utility.yul\":3674:3676   */\n              0x1f\n                /* \"#utility.yul\":3667:3672   */\n              dup4\n                /* \"#utility.yul\":3663:3677   */\n              add\n                /* \"#utility.yul\":3659:3687   */\n              and\n                /* \"#utility.yul\":3649:3687   */\n              swap1\n              pop\n                /* \"#utility.yul\":3591:3693   */\n              swap2\n              swap1\n              pop\n              jump\t// out\n                /* \"#utility.yul\":3699:4063   */\n            tag_121:\n                /* \"#utility.yul\":3787:3790   */\n              0x00\n                /* \"#utility.yul\":3815:3854   */\n              tag_177\n                /* \"#utility.yul\":3848:3853   */\n              dup3\n                /* \"#utility.yul\":3815:3854   */\n              tag_117\n              jump\t// in\n            tag_177:\n                /* \"#utility.yul\":3870:3941   */\n              tag_178\n                /* \"#utility.yul\":3934:3940   */\n              dup2\n                /* \"#utility.yul\":3929:3932   */\n              dup6\n                /* \"#utility.yul\":3870:3941   */\n              tag_118\n              jump\t// in\n            tag_178:\n                /* \"#utility.yul\":3863:3941   */\n              swap4\n              pop\n                /* \"#utility.yul\":3950:4002   */\n              tag_179\n                /* \"#utility.yul\":3995:4001   */\n              dup2\n                /* \"#utility.yul\":3990:3993   */\n              dup6\n                /* \"#utility.yul\":3983:3987   */\n              0x20\n                /* \"#utility.yul\":3976:3981   */\n              dup7\n                /* \"#utility.yul\":3972:3988   */\n              add\n                /* \"#utility.yul\":3950:4002   */\n              tag_119\n              jump\t// in\n            tag_179:\n                /* \"#utility.yul\":4027:4056   */\n              tag_180\n                /* \"#utility.yul\":4049:4055   */\n              dup2\n                /* \"#utility.yul\":4027:4056   */\n              tag_120\n              jump\t// in\n            tag_180:\n                /* \"#utility.yul\":4022:4025   */\n              dup5\n                /* \"#utility.yul\":4018:4057   */\n              add\n                /* \"#utility.yul\":4011:4057   */\n              swap2\n              pop\n                /* \"#utility.yul\":3791:4063   */\n              pop\n                /* \"#utility.yul\":3699:4063   */\n              swap3\n              swap2\n              pop\n              pop\n              jump\t// out\n                /* \"#utility.yul\":4069:4812   */\n            tag_39:\n                /* \"#utility.yul\":4288:4292   */\n              0x00\n                /* \"#utility.yul\":4326:4329   */\n              0xa0\n                /* \"#utility.yul\":4315:4324   */\n              dup3\n                /* \"#utility.yul\":4311:4330   */\n              add\n                /* \"#utility.yul\":4303:4330   */\n              swap1\n              pop\n                /* \"#utility.yul\":4376:4385   */\n              dup2\n                /* \"#utility.yul\":4370:4374   */\n              dup2\n                /* \"#utility.yul\":4366:4386   */\n              sub\n                /* \"#utility.yul\":4362:4363   */\n              0x00\n                /* \"#utility.yul\":4351:4360   */\n              dup4\n                /* \"#utility.yul\":4347:4364   */\n              add\n                /* \"#utility.yul\":4340:4387   */\n              mstore\n                /* \"#utility.yul\":4404:4482   */\n              tag_182\n                /* \"#utility.yul\":4477:4481   */\n              dup2\n                /* \"#utility.yul\":4468:4474   */\n              dup9\n                /* \"#utility.yul\":4404:4482   */\n              tag_121\n              jump\t// in\n            tag_182:\n                /* \"#utility.yul\":4396:4482   */\n              swap1\n              pop\n                /* \"#utility.yul\":4492:4564   */\n              tag_183\n                /* \"#utility.yul\":4560:4562   */\n              0x20\n                /* \"#utility.yul\":4549:4558   */\n              dup4\n                /* \"#utility.yul\":4545:4563   */\n              add\n                /* \"#utility.yul\":4536:4542   */\n              dup8\n                /* \"#utility.yul\":4492:4564   */\n              tag_116\n              jump\t// in\n            tag_183:\n                /* \"#utility.yul\":4574:4646   */\n              tag_184\n                /* \"#utility.yul\":4642:4644   */\n              0x40\n                /* \"#utility.yul\":4631:4640   */\n              dup4\n                /* \"#utility.yul\":4627:4645   */\n              add\n                /* \"#utility.yul\":4618:4624   */\n              dup7\n                /* \"#utility.yul\":4574:4646   */\n              tag_115\n              jump\t// in\n            tag_184:\n                /* \"#utility.yul\":4656:4722   */\n              tag_185\n                /* \"#utility.yul\":4718:4720   */\n              0x60\n                /* \"#utility.yul\":4707:4716   */\n              dup4\n                /* \"#utility.yul\":4703:4721   */\n              add\n                /* \"#utility.yul\":4694:4700   */\n              dup6\n                /* \"#utility.yul\":4656:4722   */\n              tag_114\n              jump\t// in\n            tag_185:\n                /* \"#utility.yul\":4732:4805   */\n              tag_186\n                /* \"#utility.yul\":4800:4803   */\n              0x80\n                /* \"#utility.yul\":4789:4798   */\n              dup4\n                /* \"#utility.yul\":4785:4804   */\n              add\n                /* \"#utility.yul\":4776:4782   */\n              dup5\n                /* \"#utility.yul\":4732:4805   */\n              tag_116\n              jump\t// in\n            tag_186:\n                /* \"#utility.yul\":4069:4812   */\n              swap7\n              swap6\n              pop\n              pop\n              pop\n              pop\n              pop\n              pop\n              jump\t// out\n                /* \"#utility.yul\":4818:4935   */\n            tag_122:\n                /* \"#utility.yul\":4927:4928   */\n              0x00\n                /* \"#utility.yul\":4924:4925   */\n              dup1\n                /* \"#utility.yul\":4917:4929   */\n              revert\n                /* \"#utility.yul\":4941:5058   */\n            tag_123:\n                /* \"#utility.yul\":5050:5051   */\n              0x00\n                /* \"#utility.yul\":5047:5048   */\n              dup1\n                /* \"#utility.yul\":5040:5052   */\n              revert\n                /* \"#utility.yul\":5064:5181   */\n            tag_124:\n                /* \"#utility.yul\":5173:5174   */\n              0x00\n                /* \"#utility.yul\":5170:5171   */\n              dup1\n                /* \"#utility.yul\":5163:5175   */\n              revert\n                /* \"#utility.yul\":5201:5754   */\n            tag_125:\n                /* \"#utility.yul\":5259:5267   */\n              0x00\n                /* \"#utility.yul\":5269:5275   */\n              dup1\n                /* \"#utility.yul\":5319:5322   */\n              dup4\n                /* \"#utility.yul\":5312:5316   */\n              0x1f\n                /* \"#utility.yul\":5304:5310   */\n              dup5\n                /* \"#utility.yul\":5300:5317   */\n              add\n                /* \"#utility.yul\":5296:5323   */\n              slt\n                /* \"#utility.yul\":5286:5408   */\n              tag_191\n              jumpi\n                /* \"#utility.yul\":5327:5406   */\n              tag_192\n              tag_122\n              jump\t// in\n            tag_192:\n                /* \"#utility.yul\":5286:5408   */\n            tag_191:\n                /* \"#utility.yul\":5440:5446   */\n              dup3\n                /* \"#utility.yul\":5427:5447   */\n              calldataload\n                /* \"#utility.yul\":5417:5447   */\n              swap1\n              pop\n                /* \"#utility.yul\":5470:5488   */\n              0xffffffffffffffff\n                /* \"#utility.yul\":5462:5468   */\n              dup2\n                /* \"#utility.yul\":5459:5489   */\n              gt\n                /* \"#utility.yul\":5456:5573   */\n              iszero\n              tag_193\n              jumpi\n                /* \"#utility.yul\":5492:5571   */\n              tag_194\n              tag_123\n              jump\t// in\n            tag_194:\n                /* \"#utility.yul\":5456:5573   */\n            tag_193:\n                /* \"#utility.yul\":5606:5610   */\n              0x20\n                /* \"#utility.yul\":5598:5604   */\n              dup4\n                /* \"#utility.yul\":5594:5611   */\n              add\n                /* \"#utility.yul\":5582:5611   */\n              swap2\n              pop\n                /* \"#utility.yul\":5660:5663   */\n              dup4\n                /* \"#utility.yul\":5652:5656   */\n              0x01\n                /* \"#utility.yul\":5644:5650   */\n              dup3\n                /* \"#utility.yul\":5640:5657   */\n              mul\n                /* \"#utility.yul\":5630:5638   */\n              dup4\n                /* \"#utility.yul\":5626:5658   */\n              add\n                /* \"#utility.yul\":5623:5664   */\n              gt\n                /* \"#utility.yul\":5620:5748   */\n              iszero\n              tag_195\n              jumpi\n                /* \"#utility.yul\":5667:5746   */\n              tag_196\n              tag_124\n              jump\t// in\n            tag_196:\n                /* \"#utility.yul\":5620:5748   */\n            tag_195:\n                /* \"#utility.yul\":5201:5754   */\n              swap3\n              pop\n              swap3\n              swap1\n              pop\n              jump\t// out\n                /* \"#utility.yul\":5760:6579   */\n            tag_43:\n                /* \"#utility.yul\":5849:5855   */\n              0x00\n                /* \"#utility.yul\":5857:5863   */\n              dup1\n                /* \"#utility.yul\":5865:5871   */\n              0x00\n                /* \"#utility.yul\":5873:5879   */\n              dup1\n                /* \"#utility.yul\":5922:5924   */\n              0x60\n                /* \"#utility.yul\":5910:5919   */\n              dup6\n                /* \"#utility.yul\":5901:5908   */\n              dup8\n                /* \"#utility.yul\":5897:5920   */\n              sub\n                /* \"#utility.yul\":5893:5925   */\n              slt\n                /* \"#utility.yul\":5890:6009   */\n              iszero\n              tag_198\n              jumpi\n                /* \"#utility.yul\":5928:6007   */\n              tag_199\n              tag_104\n              jump\t// in\n            tag_199:\n                /* \"#utility.yul\":5890:6009   */\n            tag_198:\n                /* \"#utility.yul\":6076:6077   */\n              0x00\n                /* \"#utility.yul\":6065:6074   */\n              dup6\n                /* \"#utility.yul\":6061:6078   */\n              add\n                /* \"#utility.yul\":6048:6079   */\n              calldataload\n                /* \"#utility.yul\":6106:6124   */\n              0xffffffffffffffff\n                /* \"#utility.yul\":6098:6104   */\n              dup2\n                /* \"#utility.yul\":6095:6125   */\n              gt\n                /* \"#utility.yul\":6092:6209   */\n              iszero\n              tag_200\n              jumpi\n                /* \"#utility.yul\":6128:6207   */\n              tag_201\n              tag_105\n              jump\t// in\n            tag_201:\n                /* \"#utility.yul\":6092:6209   */\n            tag_200:\n                /* \"#utility.yul\":6241:6306   */\n              tag_202\n                /* \"#utility.yul\":6298:6305   */\n              dup8\n                /* \"#utility.yul\":6289:6295   */\n              dup3\n                /* \"#utility.yul\":6278:6287   */\n              dup9\n                /* \"#utility.yul\":6274:6296   */\n              add\n                /* \"#utility.yul\":6241:6306   */\n              tag_125\n              jump\t// in\n            tag_202:\n                /* \"#utility.yul\":6223:6306   */\n              swap5\n              pop\n              swap5\n              pop\n                /* \"#utility.yul\":6019:6316   */\n              pop\n                /* \"#utility.yul\":6355:6357   */\n              0x20\n                /* \"#utility.yul\":6381:6434   */\n              tag_203\n                /* \"#utility.yul\":6426:6433   */\n              dup8\n                /* \"#utility.yul\":6417:6423   */\n              dup3\n                /* \"#utility.yul\":6406:6415   */\n              dup9\n                /* \"#utility.yul\":6402:6424   */\n              add\n                /* \"#utility.yul\":6381:6434   */\n              tag_108\n              jump\t// in\n            tag_203:\n                /* \"#utility.yul\":6371:6434   */\n              swap3\n              pop\n                /* \"#utility.yul\":6326:6444   */\n              pop\n                /* \"#utility.yul\":6483:6485   */\n              0x40\n                /* \"#utility.yul\":6509:6562   */\n              tag_204\n                /* \"#utility.yul\":6554:6561   */\n              dup8\n                /* \"#utility.yul\":6545:6551   */\n              dup3\n                /* \"#utility.yul\":6534:6543   */\n              dup9\n                /* \"#utility.yul\":6530:6552   */\n              add\n                /* \"#utility.yul\":6509:6562   */\n              tag_112\n              jump\t// in\n            tag_204:\n                /* \"#utility.yul\":6499:6562   */\n              swap2\n              pop\n                /* \"#utility.yul\":6454:6572   */\n              pop\n                /* \"#utility.yul\":5760:6579   */\n              swap3\n              swap6\n              swap2\n              swap5\n              pop\n              swap3\n              pop\n              jump\t// out\n                /* \"#utility.yul\":6585:6765   */\n            tag_60:\n                /* \"#utility.yul\":6633:6710   */\n              0x4e487b7100000000000000000000000000000000000000000000000000000000\n                /* \"#utility.yul\":6630:6631   */\n              0x00\n                /* \"#utility.yul\":6623:6711   */\n              mstore\n                /* \"#utility.yul\":6730:6734   */\n              0x32\n                /* \"#utility.yul\":6727:6728   */\n              0x04\n                /* \"#utility.yul\":6720:6735   */\n              mstore\n                /* \"#utility.yul\":6754:6758   */\n              0x24\n                /* \"#utility.yul\":6751:6752   */\n              0x00\n                /* \"#utility.yul\":6744:6759   */\n              revert\n                /* \"#utility.yul\":6771:6951   */\n            tag_126:\n                /* \"#utility.yul\":6819:6896   */\n              0x4e487b7100000000000000000000000000000000000000000000000000000000\n                /* \"#utility.yul\":6816:6817   */\n              0x00\n                /* \"#utility.yul\":6809:6897   */\n              mstore\n                /* \"#utility.yul\":6916:6920   */\n              0x12\n                /* \"#utility.yul\":6913:6914   */\n              0x04\n                /* \"#utility.yul\":6906:6921   */\n              mstore\n                /* \"#utility.yul\":6940:6944   */\n              0x24\n                /* \"#utility.yul\":6937:6938   */\n              0x00\n                /* \"#utility.yul\":6930:6945   */\n              revert\n                /* \"#utility.yul\":6957:7137   */\n            tag_127:\n                /* \"#utility.yul\":7005:7082   */\n              0x4e487b7100000000000000000000000000000000000000000000000000000000\n                /* \"#utility.yul\":7002:7003   */\n              0x00\n                /* \"#utility.yul\":6995:7083   */\n              mstore\n                /* \"#utility.yul\":7102:7106   */\n              0x11\n                /* \"#utility.yul\":7099:7100   */\n              0x04\n                /* \"#utility.yul\":7092:7107   */\n              mstore\n                /* \"#utility.yul\":7126:7130   */\n              0x24\n                /* \"#utility.yul\":7123:7124   */\n              0x00\n                /* \"#utility.yul\":7116:7131   */\n              revert\n                /* \"#utility.yul\":7143:7328   */\n            tag_64:\n                /* \"#utility.yul\":7183:7184   */\n              0x00\n                /* \"#utility.yul\":7200:7220   */\n              tag_209\n                /* \"#utility.yul\":7218:7219   */\n              dup3\n                /* \"#utility.yul\":7200:7220   */\n              tag_106\n              jump\t// in\n            tag_209:\n                /* \"#utility.yul\":7195:7220   */\n              swap2\n              pop\n                /* \"#utility.yul\":7234:7254   */\n              tag_210\n                /* \"#utility.yul\":7252:7253   */\n              dup4\n                /* \"#utility.yul\":7234:7254   */\n              tag_106\n              jump\t// in\n            tag_210:\n                /* \"#utility.yul\":7229:7254   */\n              swap3\n              pop\n                /* \"#utility.yul\":7273:7274   */\n              dup3\n                /* \"#utility.yul\":7263:7298   */\n              tag_211\n              jumpi\n                /* \"#utility.yul\":7278:7296   */\n              tag_212\n              tag_126\n              jump\t// in\n            tag_212:\n                /* \"#utility.yul\":7263:7298   */\n            tag_211:\n                /* \"#utility.yul\":7320:7321   */\n              dup3\n                /* \"#utility.yul\":7317:7318   */\n              dup3\n                /* \"#utility.yul\":7313:7322   */\n              div\n                /* \"#utility.yul\":7308:7322   */\n              swap1\n              pop\n                /* \"#utility.yul\":7143:7328   */\n              swap3\n              swap2\n              pop\n              pop\n              jump\t// out\n                /* \"#utility.yul\":7334:7514   */\n            tag_128:\n                /* \"#utility.yul\":7382:7459   */\n              0x4e487b7100000000000000000000000000000000000000000000000000000000\n                /* \"#utility.yul\":7379:7380   */\n              0x00\n                /* \"#utility.yul\":7372:7460   */\n              mstore\n                /* \"#utility.yul\":7479:7483   */\n              0x22\n                /* \"#utility.yul\":7476:7477   */\n              0x04\n                /* \"#utility.yul\":7469:7484   */\n              mstore\n                /* \"#utility.yul\":7503:7507   */\n              0x24\n                /* \"#utility.yul\":7500:7501   */\n              0x00\n                /* \"#utility.yul\":7493:7508   */\n              revert\n                /* \"#utility.yul\":7520:7840   */\n            tag_71:\n                /* \"#utility.yul\":7564:7570   */\n              0x00\n                /* \"#utility.yul\":7601:7602   */\n              0x02\n                /* \"#utility.yul\":7595:7599   */\n              dup3\n                /* \"#utility.yul\":7591:7603   */\n              div\n                /* \"#utility.yul\":7581:7603   */\n              swap1\n              pop\n                /* \"#utility.yul\":7648:7649   */\n              0x01\n                /* \"#utility.yul\":7642:7646   */\n              dup3\n                /* \"#utility.yul\":7638:7650   */\n              and\n                /* \"#utility.yul\":7669:7687   */\n              dup1\n                /* \"#utility.yul\":7659:7740   */\n              tag_215\n              jumpi\n                /* \"#utility.yul\":7725:7729   */\n              0x7f\n                /* \"#utility.yul\":7717:7723   */\n              dup3\n                /* \"#utility.yul\":7713:7730   */\n              and\n                /* \"#utility.yul\":7703:7730   */\n              swap2\n              pop\n                /* \"#utility.yul\":7659:7740   */\n            tag_215:\n                /* \"#utility.yul\":7787:7789   */\n              0x20\n                /* \"#utility.yul\":7779:7785   */\n              dup3\n                /* \"#utility.yul\":7776:7790   */\n              lt\n                /* \"#utility.yul\":7756:7774   */\n              dup2\n                /* \"#utility.yul\":7753:7791   */\n              eq\n                /* \"#utility.yul\":7750:7834   */\n              iszero\n              tag_216\n              jumpi\n                /* \"#utility.yul\":7806:7824   */\n              tag_217\n              tag_128\n              jump\t// in\n            tag_217:\n                /* \"#utility.yul\":7750:7834   */\n            tag_216:\n                /* \"#utility.yul\":7571:7840   */\n              pop\n                /* \"#utility.yul\":7520:7840   */\n              swap2\n              swap1\n              pop\n              jump\t// out\n                /* \"#utility.yul\":7846:8079   */\n            tag_85:\n                /* \"#utility.yul\":7885:7888   */\n              0x00\n                /* \"#utility.yul\":7908:7932   */\n              tag_219\n                /* \"#utility.yul\":7926:7931   */\n              dup3\n                /* \"#utility.yul\":7908:7932   */\n              tag_106\n              jump\t// in\n            tag_219:\n                /* \"#utility.yul\":7899:7932   */\n              swap2\n              pop\n                /* \"#utility.yul\":7954:8020   */\n              0xffffffffffffffffffffffffffffffffffffffffffffffffffffffffffffffff\n                /* \"#utility.yul\":7947:7952   */\n              dup3\n                /* \"#utility.yul\":7944:8021   */\n              eq\n                /* \"#utility.yul\":7941:8044   */\n              iszero\n              tag_220\n              jumpi\n                /* \"#utility.yul\":8024:8042   */\n              tag_221\n              tag_127\n              jump\t// in\n            tag_221:\n                /* \"#utility.yul\":7941:8044   */\n            tag_220:\n                /* \"#utility.yul\":8071:8072   */\n              0x01\n                /* \"#utility.yul\":8064:8069   */\n              dup3\n                /* \"#utility.yul\":8060:8073   */\n              add\n                /* \"#utility.yul\":8053:8073   */\n              swap1\n              pop\n                /* \"#utility.yul\":7846:8079   */\n              swap2\n              swap1\n              pop\n              jump\t// out\n\n            auxdata: 0xa26469706673582212200b40e681665899bce45dc4dbffdfd92164abe06cb10d4640b5c40e0a692d75fa64736f6c63430008090033\n        }\n    }\n\n    auxdata: 0xa264697066735822122023fc1c5a1ed577c1cec2021bbc6b42c854e2e5c645bc08cb058c41e59c1112b364736f6c63430008090033\n}\n","bytecode":{"linkReferences":{},"object":"608060405234801561001057600080fd5b506112c7806100206000396000f3fe608060405234801561001057600080fd5b50600436106100415760003560e01c8063a3303a7514610046578063a6b0363314610062578063a9d5cba314610080575b600080fd5b610060600480360381019061005b9190610266565b6100b0565b005b61006a610151565b6040516100779190610383565b60405180910390f35b61009a60048036038101906100959190610266565b6101df565b6040516100a791906103b4565b60405180910390f35b600081336040516100c09061021e565b6100cb9291906103de565b604051809103906000f0801580156100e7573d6000803e3d6000fd5b5090506000819080600181540180825580915050600190039060005260206000200160009091909190916101000a81548173ffffffffffffffffffffffffffffffffffffffff021916908373ffffffffffffffffffffffffffffffffffffffff1602179055505050565b606060008054806020026020016040519081016040528092919081815260200182805480156101d557602002820191906000526020600020905b8160009054906101000a900473ffffffffffffffffffffffffffffffffffffffff1673ffffffffffffffffffffffffffffffffffffffff168152602001906001019080831161018b575b5050505050905090565b600081815481106101ef57600080fd5b906000526020600020016000915054906101000a900473ffffffffffffffffffffffffffffffffffffffff1681565b610e8a8061040883390190565b600080fd5b6000819050919050565b61024381610230565b811461024e57600080fd5b50565b6000813590506102608161023a565b92915050565b60006020828403121561027c5761027b61022b565b5b600061028a84828501610251565b91505092915050565b600081519050919050565b600082825260208201905092915050565b6000819050602082019050919050565b600073ffffffffffffffffffffffffffffffffffffffff82169050919050565b60006102ea826102bf565b9050919050565b6102fa816102df565b82525050565b600061030c83836102f1565b60208301905092915050565b6000602082019050919050565b600061033082610293565b61033a818561029e565b9350610345836102af565b8060005b8381101561037657815161035d8882610300565b975061036883610318565b925050600181019050610349565b5085935050505092915050565b6000602082019050818103600083015261039d8184610325565b905092915050565b6103ae816102df565b82525050565b60006020820190506103c960008301846103a5565b92915050565b6103d881610230565b82525050565b60006040820190506103f360008301856103cf565b61040060208301846103a5565b939250505056fe60806040523480156200001157600080fd5b5060405162000e8a38038062000e8a83398181016040528101906200003791906200012b565b81600181905550806000806101000a81548173ffffffffffffffffffffffffffffffffffffffff021916908373ffffffffffffffffffffffffffffffffffffffff160217905550505062000172565b600080fd5b6000819050919050565b620000a0816200008b565b8114620000ac57600080fd5b50565b600081519050620000c08162000095565b92915050565b600073ffffffffffffffffffffffffffffffffffffffff82169050919050565b6000620000f382620000c6565b9050919050565b6200010581620000e6565b81146200011157600080fd5b50565b6000815190506200012581620000fa565b92915050565b6000806040838503121562000145576200014462000086565b5b60006200015585828601620000af565b9250506020620001688582860162000114565b9150509250929050565b610d0880620001826000396000f3fe6080604052600436106100865760003560e01c806381d12c581161005957806381d12c58146101475780638810c6d914610188578063937e09b1146101b1578063d7bb99ba146101dc578063d7d1bbdb146101e657610086565b8063034410061461008b5780631f6d4942146100b4578063481c6a75146100f15780637569b3d71461011c575b600080fd5b34801561009757600080fd5b506100b260048036038101906100ad919061085c565b61020f565b005b3480156100c057600080fd5b506100db60048036038101906100d691906108e7565b610357565b6040516100e8919061092f565b60405180910390f35b3480156100fd57600080fd5b50610106610377565b6040516101139190610959565b60405180910390f35b34801561012857600080fd5b5061013161039b565b60405161013e9190610983565b60405180910390f35b34801561015357600080fd5b5061016e6004803603810190610169919061085c565b6103a1565b60405161017f959493929190610a37565b60405180910390f35b34801561019457600080fd5b506101af60048036038101906101aa9190610af6565b61049c565b005b3480156101bd57600080fd5b506101c66105a6565b6040516101d39190610983565b60405180910390f35b6101e46105ac565b005b3480156101f257600080fd5b5061020d6004803603810190610208919061085c565b61062c565b005b60008054906101000a900473ffffffffffffffffffffffffffffffffffffffff1673ffffffffffffffffffffffffffffffffffffffff163373ffffffffffffffffffffffffffffffffffffffff161461026757600080fd5b60006002828154811061027d5761027c610b6a565b5b906000526020600020906005020190508060020160149054906101000a900460ff16156102a957600080fd5b60026004546102b89190610bf7565b8160040154116102c757600080fd5b8060020160009054906101000a900473ffffffffffffffffffffffffffffffffffffffff1673ffffffffffffffffffffffffffffffffffffffff166108fc82600101549081150290604051600060405180830381858888f19350505050158015610335573d6000803e3d6000fd5b5060018160020160146101000a81548160ff0219169083151502179055505050565b60036020528060005260406000206000915054906101000a900460ff1681565b60008054906101000a900473ffffffffffffffffffffffffffffffffffffffff1681565b60045481565b600281815481106103b157600080fd5b90600052602060002090600502016000915090508060000180546103d490610c57565b80601f016020809104026020016040519081016040528092919081815260200182805461040090610c57565b801561044d5780601f106104225761010080835404028352916020019161044d565b820191906000526020600020905b81548152906001019060200180831161043057829003601f168201915b5050505050908060010154908060020160009054906101000a900473ffffffffffffffffffffffffffffffffffffffff16908060020160149054906101000a900460ff16908060040154905085565b60008054906101000a900473ffffffffffffffffffffffffffffffffffffffff1673ffffffffffffffffffffffffffffffffffffffff163373ffffffffffffffffffffffffffffffffffffffff16146104f457600080fd5b600060026001816001815401808255809150500390600052602060002090600502019050848482600001919061052b929190610779565b50828160010181905550818160020160006101000a81548173ffffffffffffffffffffffffffffffffffffffff021916908373ffffffffffffffffffffffffffffffffffffffff16021790555060008160020160146101000a81548160ff021916908315150217905550600081600401819055505050505050565b60015481565b60015434116105ba57600080fd5b6001600360003373ffffffffffffffffffffffffffffffffffffffff1673ffffffffffffffffffffffffffffffffffffffff16815260200190815260200160002060006101000a81548160ff0219169083151502179055506004600081548092919061062590610c89565b9190505550565b60006002828154811061064257610641610b6a565b5b90600052602060002090600502019050600360003373ffffffffffffffffffffffffffffffffffffffff1673ffffffffffffffffffffffffffffffffffffffff16815260200190815260200160002060009054906101000a900460ff166106a857600080fd5b8060030160003373ffffffffffffffffffffffffffffffffffffffff1673ffffffffffffffffffffffffffffffffffffffff16815260200190815260200160002060009054906101000a900460ff161561070157600080fd5b60018160030160003373ffffffffffffffffffffffffffffffffffffffff1673ffffffffffffffffffffffffffffffffffffffff16815260200190815260200160002060006101000a81548160ff02191690831515021790555080600401600081548092919061077090610c89565b91905055505050565b82805461078590610c57565b90600052602060002090601f0160209004810192826107a757600085556107ee565b82601f106107c057803560ff19168380011785556107ee565b828001600101855582156107ee579182015b828111156107ed5782358255916020019190600101906107d2565b5b5090506107fb91906107ff565b5090565b5b80821115610818576000816000905550600101610800565b5090565b600080fd5b600080fd5b6000819050919050565b61083981610826565b811461084457600080fd5b50565b60008135905061085681610830565b92915050565b6000602082840312156108725761087161081c565b5b600061088084828501610847565b91505092915050565b600073ffffffffffffffffffffffffffffffffffffffff82169050919050565b60006108b482610889565b9050919050565b6108c4816108a9565b81146108cf57600080fd5b50565b6000813590506108e1816108bb565b92915050565b6000602082840312156108fd576108fc61081c565b5b600061090b848285016108d2565b91505092915050565b60008115159050919050565b61092981610914565b82525050565b60006020820190506109446000830184610920565b92915050565b610953816108a9565b82525050565b600060208201905061096e600083018461094a565b92915050565b61097d81610826565b82525050565b60006020820190506109986000830184610974565b92915050565b600081519050919050565b600082825260208201905092915050565b60005b838110156109d85780820151818401526020810190506109bd565b838111156109e7576000848401525b50505050565b6000601f19601f8301169050919050565b6000610a098261099e565b610a1381856109a9565b9350610a238185602086016109ba565b610a2c816109ed565b840191505092915050565b600060a0820190508181036000830152610a5181886109fe565b9050610a606020830187610974565b610a6d604083018661094a565b610a7a6060830185610920565b610a876080830184610974565b9695505050505050565b600080fd5b600080fd5b600080fd5b60008083601f840112610ab657610ab5610a91565b5b8235905067ffffffffffffffff811115610ad357610ad2610a96565b5b602083019150836001820283011115610aef57610aee610a9b565b5b9250929050565b60008060008060608587031215610b1057610b0f61081c565b5b600085013567ffffffffffffffff811115610b2e57610b2d610821565b5b610b3a87828801610aa0565b94509450506020610b4d87828801610847565b9250506040610b5e878288016108d2565b91505092959194509250565b7f4e487b7100000000000000000000000000000000000000000000000000000000600052603260045260246000fd5b7f4e487b7100000000000000000000000000000000000000000000000000000000600052601260045260246000fd5b7f4e487b7100000000000000000000000000000000000000000000000000000000600052601160045260246000fd5b6000610c0282610826565b9150610c0d83610826565b925082610c1d57610c1c610b99565b5b828204905092915050565b7f4e487b7100000000000000000000000000000000000000000000000000000000600052602260045260246000fd5b60006002820490506001821680610c6f57607f821691505b60208210811415610c8357610c82610c28565b5b50919050565b6000610c9482610826565b91507fffffffffffffffffffffffffffffffffffffffffffffffffffffffffffffffff821415610cc757610cc6610bc8565b5b60018201905091905056fea26469706673582212200b40e681665899bce45dc4dbffdfd92164abe06cb10d4640b5c40e0a692d75fa64736f6c63430008090033a264697066735822122023fc1c5a1ed577c1cec2021bbc6b42c854e2e5c645bc08cb058c41e59c1112b364736f6c63430008090033","opcodes":"PUSH1 0x80 PUSH1 0x40 MSTORE CALLVALUE DUP1 ISZERO PUSH2 0x10 JUMPI PUSH1 0x0 DUP1 REVERT JUMPDEST POP PUSH2 0x12C7 DUP1 PUSH2 0x20 PUSH1 0x0 CODECOPY PUSH1 0x0 RETURN INVALID PUSH1 0x80 PUSH1 0x40 MSTORE CALLVALUE DUP1 ISZERO PUSH2 0x10 JUMPI PUSH1 0x0 DUP1 REVERT JUMPDEST POP PUSH1 0x4 CALLDATASIZE LT PUSH2 0x41 JUMPI PUSH1 0x0 CALLDATALOAD PUSH1 0xE0 SHR DUP1 PUSH4 0xA3303A75 EQ PUSH2 0x46 JUMPI DUP1 PUSH4 0xA6B03633 EQ PUSH2 0x62 JUMPI DUP1 PUSH4 0xA9D5CBA3 EQ PUSH2 0x80 JUMPI JUMPDEST PUSH1 0x0 DUP1 REVERT JUMPDEST PUSH2 0x60 PUSH1 0x4 DUP1 CALLDATASIZE SUB DUP2 ADD SWAP1 PUSH2 0x5B SWAP2 SWAP1 PUSH2 0x266 JUMP JUMPDEST PUSH2 0xB0 JUMP JUMPDEST STOP JUMPDEST PUSH2 0x6A PUSH2 0x151 JUMP JUMPDEST PUSH1 0x40 MLOAD PUSH2 0x77 SWAP2 SWAP1 PUSH2 0x383 JUMP JUMPDEST PUSH1 0x40 MLOAD DUP1 SWAP2 SUB SWAP1 RETURN JUMPDEST PUSH2 0x9A PUSH1 0x4 DUP1 CALLDATASIZE SUB DUP2 ADD SWAP1 PUSH2 0x95 SWAP2 SWAP1 PUSH2 0x266 JUMP JUMPDEST PUSH2 0x1DF JUMP JUMPDEST PUSH1 0x40 MLOAD PUSH2 0xA7 SWAP2 SWAP1 PUSH2 0x3B4 JUMP JUMPDEST PUSH1 0x40 MLOAD DUP1 SWAP2 SUB SWAP1 RETURN JUMPDEST PUSH1 0x0 DUP2 CALLER PUSH1 0x40 MLOAD PUSH2 0xC0 SWAP1 PUSH2 0x21E JUMP JUMPDEST PUSH2 0xCB SWAP3 SWAP2 SWAP1 PUSH2 0x3DE JUMP JUMPDEST PUSH1 0x40 MLOAD DUP1 SWAP2 SUB SWAP1 PUSH1 0x0 CREATE DUP1 ISZERO DUP1 ISZERO PUSH2 0xE7 JUMPI RETURNDATASIZE PUSH1 0x0 DUP1 RETURNDATACOPY RETURNDATASIZE PUSH1 0x0 REVERT JUMPDEST POP SWAP1 POP PUSH1 0x0 DUP2 SWAP1 DUP1 PUSH1 0x1 DUP2 SLOAD ADD DUP1 DUP3 SSTORE DUP1 SWAP2 POP POP PUSH1 0x1 SWAP1 SUB SWAP1 PUSH1 0x0 MSTORE PUSH1 0x20 PUSH1 0x0 KECCAK256 ADD PUSH1 0x0 SWAP1 SWAP2 SWAP1 SWAP2 SWAP1 SWAP2 PUSH2 0x100 EXP DUP2 SLOAD DUP2 PUSH20 0xFFFFFFFFFFFFFFFFFFFFFFFFFFFFFFFFFFFFFFFF MUL NOT AND SWAP1 DUP4 PUSH20 0xFFFFFFFFFFFFFFFFFFFFFFFFFFFFFFFFFFFFFFFF AND MUL OR SWAP1 SSTORE POP POP POP JUMP JUMPDEST PUSH1 0x60 PUSH1 0x0 DUP1 SLOAD DUP1 PUSH1 0x20 MUL PUSH1 0x20 ADD PUSH1 0x40 MLOAD SWAP1 DUP2 ADD PUSH1 0x40 MSTORE DUP1 SWAP3 SWAP2 SWAP1 DUP2 DUP2 MSTORE PUSH1 0x20 ADD DUP3 DUP1 SLOAD DUP1 ISZERO PUSH2 0x1D5 JUMPI PUSH1 0x20 MUL DUP3 ADD SWAP2 SWAP1 PUSH1 0x0 MSTORE PUSH1 0x20 PUSH1 0x0 KECCAK256 SWAP1 JUMPDEST DUP2 PUSH1 0x0 SWAP1 SLOAD SWAP1 PUSH2 0x100 EXP SWAP1 DIV PUSH20 0xFFFFFFFFFFFFFFFFFFFFFFFFFFFFFFFFFFFFFFFF AND PUSH20 0xFFFFFFFFFFFFFFFFFFFFFFFFFFFFFFFFFFFFFFFF AND DUP2 MSTORE PUSH1 0x20 ADD SWAP1 PUSH1 0x1 ADD SWAP1 DUP1 DUP4 GT PUSH2 0x18B JUMPI JUMPDEST POP POP POP POP POP SWAP1 POP SWAP1 JUMP JUMPDEST PUSH1 0x0 DUP2 DUP2 SLOAD DUP2 LT PUSH2 0x1EF JUMPI PUSH1 0x0 DUP1 REVERT JUMPDEST SWAP1 PUSH1 0x0 MSTORE PUSH1 0x20 PUSH1 0x0 KECCAK256 ADD PUSH1 0x0 SWAP2 POP SLOAD SWAP1 PUSH2 0x100 EXP SWAP1 DIV PUSH20 0xFFFFFFFFFFFFFFFFFFFFFFFFFFFFFFFFFFFFFFFF AND DUP2 JUMP JUMPDEST PUSH2 0xE8A DUP1 PUSH2 0x408 DUP4 CODECOPY ADD SWAP1 JUMP JUMPDEST PUSH1 0x0 DUP1 REVERT JUMPDEST PUSH1 0x0 DUP2 SWAP1 POP SWAP2 SWAP1 POP JUMP JUMPDEST PUSH2 0x243 DUP2 PUSH2 0x230 JUMP JUMPDEST DUP2 EQ PUSH2 0x24E JUMPI PUSH1 0x0 DUP1 REVERT JUMPDEST POP JUMP JUMPDEST PUSH1 0x0 DUP2 CALLDATALOAD SWAP1 POP PUSH2 0x260 DUP2 PUSH2 0x23A JUMP JUMPDEST SWAP3 SWAP2 POP POP JUMP JUMPDEST PUSH1 0x0 PUSH1 0x20 DUP3 DUP5 SUB SLT ISZERO PUSH2 0x27C JUMPI PUSH2 0x27B PUSH2 0x22B JUMP JUMPDEST JUMPDEST PUSH1 0x0 PUSH2 0x28A DUP5 DUP3 DUP6 ADD PUSH2 0x251 JUMP JUMPDEST SWAP2 POP POP SWAP3 SWAP2 POP POP JUMP JUMPDEST PUSH1 0x0 DUP2 MLOAD SWAP1 POP SWAP2 SWAP1 POP JUMP JUMPDEST PUSH1 0x0 DUP3 DUP3 MSTORE PUSH1 0x20 DUP3 ADD SWAP1 POP SWAP3 SWAP2 POP POP JUMP JUMPDEST PUSH1 0x0 DUP2 SWAP1 POP PUSH1 0x20 DUP3 ADD SWAP1 POP SWAP2 SWAP1 POP JUMP JUMPDEST PUSH1 0x0 PUSH20 0xFFFFFFFFFFFFFFFFFFFFFFFFFFFFFFFFFFFFFFFF DUP3 AND SWAP1 POP SWAP2 SWAP1 POP JUMP JUMPDEST PUSH1 0x0 PUSH2 0x2EA DUP3 PUSH2 0x2BF JUMP JUMPDEST SWAP1 POP SWAP2 SWAP1 POP JUMP JUMPDEST PUSH2 0x2FA DUP2 PUSH2 0x2DF JUMP JUMPDEST DUP3 MSTORE POP POP JUMP JUMPDEST PUSH1 0x0 PUSH2 0x30C DUP4 DUP4 PUSH2 0x2F1 JUMP JUMPDEST PUSH1 0x20 DUP4 ADD SWAP1 POP SWAP3 SWAP2 POP POP JUMP JUMPDEST PUSH1 0x0 PUSH1 0x20 DUP3 ADD SWAP1 POP SWAP2 SWAP1 POP JUMP JUMPDEST PUSH1 0x0 PUSH2 0x330 DUP3 PUSH2 0x293 JUMP JUMPDEST PUSH2 0x33A DUP2 DUP6 PUSH2 0x29E JUMP JUMPDEST SWAP4 POP PUSH2 0x345 DUP4 PUSH2 0x2AF JUMP JUMPDEST DUP1 PUSH1 0x0 JUMPDEST DUP4 DUP2 LT ISZERO PUSH2 0x376 JUMPI DUP2 MLOAD PUSH2 0x35D DUP9 DUP3 PUSH2 0x300 JUMP JUMPDEST SWAP8 POP PUSH2 0x368 DUP4 PUSH2 0x318 JUMP JUMPDEST SWAP3 POP POP PUSH1 0x1 DUP2 ADD SWAP1 POP PUSH2 0x349 JUMP JUMPDEST POP DUP6 SWAP4 POP POP POP POP SWAP3 SWAP2 POP POP JUMP JUMPDEST PUSH1 0x0 PUSH1 0x20 DUP3 ADD SWAP1 POP DUP2 DUP2 SUB PUSH1 0x0 DUP4 ADD MSTORE PUSH2 0x39D DUP2 DUP5 PUSH2 0x325 JUMP JUMPDEST SWAP1 POP SWAP3 SWAP2 POP POP JUMP JUMPDEST PUSH2 0x3AE DUP2 PUSH2 0x2DF JUMP JUMPDEST DUP3 MSTORE POP POP JUMP JUMPDEST PUSH1 0x0 PUSH1 0x20 DUP3 ADD SWAP1 POP PUSH2 0x3C9 PUSH1 0x0 DUP4 ADD DUP5 PUSH2 0x3A5 JUMP JUMPDEST SWAP3 SWAP2 POP POP JUMP JUMPDEST PUSH2 0x3D8 DUP2 PUSH2 0x230 JUMP JUMPDEST DUP3 MSTORE POP POP JUMP JUMPDEST PUSH1 0x0 PUSH1 0x40 DUP3 ADD SWAP1 POP PUSH2 0x3F3 PUSH1 0x0 DUP4 ADD DUP6 PUSH2 0x3CF JUMP JUMPDEST PUSH2 0x400 PUSH1 0x20 DUP4 ADD DUP5 PUSH2 0x3A5 JUMP JUMPDEST SWAP4 SWAP3 POP POP POP JUMP INVALID PUSH1 0x80 PUSH1 0x40 MSTORE CALLVALUE DUP1 ISZERO PUSH3 0x11 JUMPI PUSH1 0x0 DUP1 REVERT JUMPDEST POP PUSH1 0x40 MLOAD PUSH3 0xE8A CODESIZE SUB DUP1 PUSH3 0xE8A DUP4 CODECOPY DUP2 DUP2 ADD PUSH1 0x40 MSTORE DUP2 ADD SWAP1 PUSH3 0x37 SWAP2 SWAP1 PUSH3 0x12B JUMP JUMPDEST DUP2 PUSH1 0x1 DUP2 SWAP1 SSTORE POP DUP1 PUSH1 0x0 DUP1 PUSH2 0x100 EXP DUP2 SLOAD DUP2 PUSH20 0xFFFFFFFFFFFFFFFFFFFFFFFFFFFFFFFFFFFFFFFF MUL NOT AND SWAP1 DUP4 PUSH20 0xFFFFFFFFFFFFFFFFFFFFFFFFFFFFFFFFFFFFFFFF AND MUL OR SWAP1 SSTORE POP POP POP PUSH3 0x172 JUMP JUMPDEST PUSH1 0x0 DUP1 REVERT JUMPDEST PUSH1 0x0 DUP2 SWAP1 POP SWAP2 SWAP1 POP JUMP JUMPDEST PUSH3 0xA0 DUP2 PUSH3 0x8B JUMP JUMPDEST DUP2 EQ PUSH3 0xAC JUMPI PUSH1 0x0 DUP1 REVERT JUMPDEST POP JUMP JUMPDEST PUSH1 0x0 DUP2 MLOAD SWAP1 POP PUSH3 0xC0 DUP2 PUSH3 0x95 JUMP JUMPDEST SWAP3 SWAP2 POP POP JUMP JUMPDEST PUSH1 0x0 PUSH20 0xFFFFFFFFFFFFFFFFFFFFFFFFFFFFFFFFFFFFFFFF DUP3 AND SWAP1 POP SWAP2 SWAP1 POP JUMP JUMPDEST PUSH1 0x0 PUSH3 0xF3 DUP3 PUSH3 0xC6 JUMP JUMPDEST SWAP1 POP SWAP2 SWAP1 POP JUMP JUMPDEST PUSH3 0x105 DUP2 PUSH3 0xE6 JUMP JUMPDEST DUP2 EQ PUSH3 0x111 JUMPI PUSH1 0x0 DUP1 REVERT JUMPDEST POP JUMP JUMPDEST PUSH1 0x0 DUP2 MLOAD SWAP1 POP PUSH3 0x125 DUP2 PUSH3 0xFA JUMP JUMPDEST SWAP3 SWAP2 POP POP JUMP JUMPDEST PUSH1 0x0 DUP1 PUSH1 0x40 DUP4 DUP6 SUB SLT ISZERO PUSH3 0x145 JUMPI PUSH3 0x144 PUSH3 0x86 JUMP JUMPDEST JUMPDEST PUSH1 0x0 PUSH3 0x155 DUP6 DUP3 DUP7 ADD PUSH3 0xAF JUMP JUMPDEST SWAP3 POP POP PUSH1 0x20 PUSH3 0x168 DUP6 DUP3 DUP7 ADD PUSH3 0x114 JUMP JUMPDEST SWAP2 POP POP SWAP3 POP SWAP3 SWAP1 POP JUMP JUMPDEST PUSH2 0xD08 DUP1 PUSH3 0x182 PUSH1 0x0 CODECOPY PUSH1 0x0 RETURN INVALID PUSH1 0x80 PUSH1 0x40 MSTORE PUSH1 0x4 CALLDATASIZE LT PUSH2 0x86 JUMPI PUSH1 0x0 CALLDATALOAD PUSH1 0xE0 SHR DUP1 PUSH4 0x81D12C58 GT PUSH2 0x59 JUMPI DUP1 PUSH4 0x81D12C58 EQ PUSH2 0x147 JUMPI DUP1 PUSH4 0x8810C6D9 EQ PUSH2 0x188 JUMPI DUP1 PUSH4 0x937E09B1 EQ PUSH2 0x1B1 JUMPI DUP1 PUSH4 0xD7BB99BA EQ PUSH2 0x1DC JUMPI DUP1 PUSH4 0xD7D1BBDB EQ PUSH2 0x1E6 JUMPI PUSH2 0x86 JUMP JUMPDEST DUP1 PUSH4 0x3441006 EQ PUSH2 0x8B JUMPI DUP1 PUSH4 0x1F6D4942 EQ PUSH2 0xB4 JUMPI DUP1 PUSH4 0x481C6A75 EQ PUSH2 0xF1 JUMPI DUP1 PUSH4 0x7569B3D7 EQ PUSH2 0x11C JUMPI JUMPDEST PUSH1 0x0 DUP1 REVERT JUMPDEST CALLVALUE DUP1 ISZERO PUSH2 0x97 JUMPI PUSH1 0x0 DUP1 REVERT JUMPDEST POP PUSH2 0xB2 PUSH1 0x4 DUP1 CALLDATASIZE SUB DUP2 ADD SWAP1 PUSH2 0xAD SWAP2 SWAP1 PUSH2 0x85C JUMP JUMPDEST PUSH2 0x20F JUMP JUMPDEST STOP JUMPDEST CALLVALUE DUP1 ISZERO PUSH2 0xC0 JUMPI PUSH1 0x0 DUP1 REVERT JUMPDEST POP PUSH2 0xDB PUSH1 0x4 DUP1 CALLDATASIZE SUB DUP2 ADD SWAP1 PUSH2 0xD6 SWAP2 SWAP1 PUSH2 0x8E7 JUMP JUMPDEST PUSH2 0x357 JUMP JUMPDEST PUSH1 0x40 MLOAD PUSH2 0xE8 SWAP2 SWAP1 PUSH2 0x92F JUMP JUMPDEST PUSH1 0x40 MLOAD DUP1 SWAP2 SUB SWAP1 RETURN JUMPDEST CALLVALUE DUP1 ISZERO PUSH2 0xFD JUMPI PUSH1 0x0 DUP1 REVERT JUMPDEST POP PUSH2 0x106 PUSH2 0x377 JUMP JUMPDEST PUSH1 0x40 MLOAD PUSH2 0x113 SWAP2 SWAP1 PUSH2 0x959 JUMP JUMPDEST PUSH1 0x40 MLOAD DUP1 SWAP2 SUB SWAP1 RETURN JUMPDEST CALLVALUE DUP1 ISZERO PUSH2 0x128 JUMPI PUSH1 0x0 DUP1 REVERT JUMPDEST POP PUSH2 0x131 PUSH2 0x39B JUMP JUMPDEST PUSH1 0x40 MLOAD PUSH2 0x13E SWAP2 SWAP1 PUSH2 0x983 JUMP JUMPDEST PUSH1 0x40 MLOAD DUP1 SWAP2 SUB SWAP1 RETURN JUMPDEST CALLVALUE DUP1 ISZERO PUSH2 0x153 JUMPI PUSH1 0x0 DUP1 REVERT JUMPDEST POP PUSH2 0x16E PUSH1 0x4 DUP1 CALLDATASIZE SUB DUP2 ADD SWAP1 PUSH2 0x169 SWAP2 SWAP1 PUSH2 0x85C JUMP JUMPDEST PUSH2 0x3A1 JUMP JUMPDEST PUSH1 0x40 MLOAD PUSH2 0x17F SWAP6 SWAP5 SWAP4 SWAP3 SWAP2 SWAP1 PUSH2 0xA37 JUMP JUMPDEST PUSH1 0x40 MLOAD DUP1 SWAP2 SUB SWAP1 RETURN JUMPDEST CALLVALUE DUP1 ISZERO PUSH2 0x194 JUMPI PUSH1 0x0 DUP1 REVERT JUMPDEST POP PUSH2 0x1AF PUSH1 0x4 DUP1 CALLDATASIZE SUB DUP2 ADD SWAP1 PUSH2 0x1AA SWAP2 SWAP1 PUSH2 0xAF6 JUMP JUMPDEST PUSH2 0x49C JUMP JUMPDEST STOP JUMPDEST CALLVALUE DUP1 ISZERO PUSH2 0x1BD JUMPI PUSH1 0x0 DUP1 REVERT JUMPDEST POP PUSH2 0x1C6 PUSH2 0x5A6 JUMP JUMPDEST PUSH1 0x40 MLOAD PUSH2 0x1D3 SWAP2 SWAP1 PUSH2 0x983 JUMP JUMPDEST PUSH1 0x40 MLOAD DUP1 SWAP2 SUB SWAP1 RETURN JUMPDEST PUSH2 0x1E4 PUSH2 0x5AC JUMP JUMPDEST STOP JUMPDEST CALLVALUE DUP1 ISZERO PUSH2 0x1F2 JUMPI PUSH1 0x0 DUP1 REVERT JUMPDEST POP PUSH2 0x20D PUSH1 0x4 DUP1 CALLDATASIZE SUB DUP2 ADD SWAP1 PUSH2 0x208 SWAP2 SWAP1 PUSH2 0x85C JUMP JUMPDEST PUSH2 0x62C JUMP JUMPDEST STOP JUMPDEST PUSH1 0x0 DUP1 SLOAD SWAP1 PUSH2 0x100 EXP SWAP1 DIV PUSH20 0xFFFFFFFFFFFFFFFFFFFFFFFFFFFFFFFFFFFFFFFF AND PUSH20 0xFFFFFFFFFFFFFFFFFFFFFFFFFFFFFFFFFFFFFFFF AND CALLER PUSH20 0xFFFFFFFFFFFFFFFFFFFFFFFFFFFFFFFFFFFFFFFF AND EQ PUSH2 0x267 JUMPI PUSH1 0x0 DUP1 REVERT JUMPDEST PUSH1 0x0 PUSH1 0x2 DUP3 DUP2 SLOAD DUP2 LT PUSH2 0x27D JUMPI PUSH2 0x27C PUSH2 0xB6A JUMP JUMPDEST JUMPDEST SWAP1 PUSH1 0x0 MSTORE PUSH1 0x20 PUSH1 0x0 KECCAK256 SWAP1 PUSH1 0x5 MUL ADD SWAP1 POP DUP1 PUSH1 0x2 ADD PUSH1 0x14 SWAP1 SLOAD SWAP1 PUSH2 0x100 EXP SWAP1 DIV PUSH1 0xFF AND ISZERO PUSH2 0x2A9 JUMPI PUSH1 0x0 DUP1 REVERT JUMPDEST PUSH1 0x2 PUSH1 0x4 SLOAD PUSH2 0x2B8 SWAP2 SWAP1 PUSH2 0xBF7 JUMP JUMPDEST DUP2 PUSH1 0x4 ADD SLOAD GT PUSH2 0x2C7 JUMPI PUSH1 0x0 DUP1 REVERT JUMPDEST DUP1 PUSH1 0x2 ADD PUSH1 0x0 SWAP1 SLOAD SWAP1 PUSH2 0x100 EXP SWAP1 DIV PUSH20 0xFFFFFFFFFFFFFFFFFFFFFFFFFFFFFFFFFFFFFFFF AND PUSH20 0xFFFFFFFFFFFFFFFFFFFFFFFFFFFFFFFFFFFFFFFF AND PUSH2 0x8FC DUP3 PUSH1 0x1 ADD SLOAD SWAP1 DUP2 ISZERO MUL SWAP1 PUSH1 0x40 MLOAD PUSH1 0x0 PUSH1 0x40 MLOAD DUP1 DUP4 SUB DUP2 DUP6 DUP9 DUP9 CALL SWAP4 POP POP POP POP ISZERO DUP1 ISZERO PUSH2 0x335 JUMPI RETURNDATASIZE PUSH1 0x0 DUP1 RETURNDATACOPY RETURNDATASIZE PUSH1 0x0 REVERT JUMPDEST POP PUSH1 0x1 DUP2 PUSH1 0x2 ADD PUSH1 0x14 PUSH2 0x100 EXP DUP2 SLOAD DUP2 PUSH1 0xFF MUL NOT AND SWAP1 DUP4 ISZERO ISZERO MUL OR SWAP1 SSTORE POP POP POP JUMP JUMPDEST PUSH1 0x3 PUSH1 0x20 MSTORE DUP1 PUSH1 0x0 MSTORE PUSH1 0x40 PUSH1 0x0 KECCAK256 PUSH1 0x0 SWAP2 POP SLOAD SWAP1 PUSH2 0x100 EXP SWAP1 DIV PUSH1 0xFF AND DUP2 JUMP JUMPDEST PUSH1 0x0 DUP1 SLOAD SWAP1 PUSH2 0x100 EXP SWAP1 DIV PUSH20 0xFFFFFFFFFFFFFFFFFFFFFFFFFFFFFFFFFFFFFFFF AND DUP2 JUMP JUMPDEST PUSH1 0x4 SLOAD DUP2 JUMP JUMPDEST PUSH1 0x2 DUP2 DUP2 SLOAD DUP2 LT PUSH2 0x3B1 JUMPI PUSH1 0x0 DUP1 REVERT JUMPDEST SWAP1 PUSH1 0x0 MSTORE PUSH1 0x20 PUSH1 0x0 KECCAK256 SWAP1 PUSH1 0x5 MUL ADD PUSH1 0x0 SWAP2 POP SWAP1 POP DUP1 PUSH1 0x0 ADD DUP1 SLOAD PUSH2 0x3D4 SWAP1 PUSH2 0xC57 JUMP JUMPDEST DUP1 PUSH1 0x1F ADD PUSH1 0x20 DUP1 SWAP2 DIV MUL PUSH1 0x20 ADD PUSH1 0x40 MLOAD SWAP1 DUP2 ADD PUSH1 0x40 MSTORE DUP1 SWAP3 SWAP2 SWAP1 DUP2 DUP2 MSTORE PUSH1 0x20 ADD DUP3 DUP1 SLOAD PUSH2 0x400 SWAP1 PUSH2 0xC57 JUMP JUMPDEST DUP1 ISZERO PUSH2 0x44D JUMPI DUP1 PUSH1 0x1F LT PUSH2 0x422 JUMPI PUSH2 0x100 DUP1 DUP4 SLOAD DIV MUL DUP4 MSTORE SWAP2 PUSH1 0x20 ADD SWAP2 PUSH2 0x44D JUMP JUMPDEST DUP3 ADD SWAP2 SWAP1 PUSH1 0x0 MSTORE PUSH1 0x20 PUSH1 0x0 KECCAK256 SWAP1 JUMPDEST DUP2 SLOAD DUP2 MSTORE SWAP1 PUSH1 0x1 ADD SWAP1 PUSH1 0x20 ADD DUP1 DUP4 GT PUSH2 0x430 JUMPI DUP3 SWAP1 SUB PUSH1 0x1F AND DUP3 ADD SWAP2 JUMPDEST POP POP POP POP POP SWAP1 DUP1 PUSH1 0x1 ADD SLOAD SWAP1 DUP1 PUSH1 0x2 ADD PUSH1 0x0 SWAP1 SLOAD SWAP1 PUSH2 0x100 EXP SWAP1 DIV PUSH20 0xFFFFFFFFFFFFFFFFFFFFFFFFFFFFFFFFFFFFFFFF AND SWAP1 DUP1 PUSH1 0x2 ADD PUSH1 0x14 SWAP1 SLOAD SWAP1 PUSH2 0x100 EXP SWAP1 DIV PUSH1 0xFF AND SWAP1 DUP1 PUSH1 0x4 ADD SLOAD SWAP1 POP DUP6 JUMP JUMPDEST PUSH1 0x0 DUP1 SLOAD SWAP1 PUSH2 0x100 EXP SWAP1 DIV PUSH20 0xFFFFFFFFFFFFFFFFFFFFFFFFFFFFFFFFFFFFFFFF AND PUSH20 0xFFFFFFFFFFFFFFFFFFFFFFFFFFFFFFFFFFFFFFFF AND CALLER PUSH20 0xFFFFFFFFFFFFFFFFFFFFFFFFFFFFFFFFFFFFFFFF AND EQ PUSH2 0x4F4 JUMPI PUSH1 0x0 DUP1 REVERT JUMPDEST PUSH1 0x0 PUSH1 0x2 PUSH1 0x1 DUP2 PUSH1 0x1 DUP2 SLOAD ADD DUP1 DUP3 SSTORE DUP1 SWAP2 POP POP SUB SWAP1 PUSH1 0x0 MSTORE PUSH1 0x20 PUSH1 0x0 KECCAK256 SWAP1 PUSH1 0x5 MUL ADD SWAP1 POP DUP5 DUP5 DUP3 PUSH1 0x0 ADD SWAP2 SWAP1 PUSH2 0x52B SWAP3 SWAP2 SWAP1 PUSH2 0x779 JUMP JUMPDEST POP DUP3 DUP2 PUSH1 0x1 ADD DUP2 SWAP1 SSTORE POP DUP2 DUP2 PUSH1 0x2 ADD PUSH1 0x0 PUSH2 0x100 EXP DUP2 SLOAD DUP2 PUSH20 0xFFFFFFFFFFFFFFFFFFFFFFFFFFFFFFFFFFFFFFFF MUL NOT AND SWAP1 DUP4 PUSH20 0xFFFFFFFFFFFFFFFFFFFFFFFFFFFFFFFFFFFFFFFF AND MUL OR SWAP1 SSTORE POP PUSH1 0x0 DUP2 PUSH1 0x2 ADD PUSH1 0x14 PUSH2 0x100 EXP DUP2 SLOAD DUP2 PUSH1 0xFF MUL NOT AND SWAP1 DUP4 ISZERO ISZERO MUL OR SWAP1 SSTORE POP PUSH1 0x0 DUP2 PUSH1 0x4 ADD DUP2 SWAP1 SSTORE POP POP POP POP POP POP JUMP JUMPDEST PUSH1 0x1 SLOAD DUP2 JUMP JUMPDEST PUSH1 0x1 SLOAD CALLVALUE GT PUSH2 0x5BA JUMPI PUSH1 0x0 DUP1 REVERT JUMPDEST PUSH1 0x1 PUSH1 0x3 PUSH1 0x0 CALLER PUSH20 0xFFFFFFFFFFFFFFFFFFFFFFFFFFFFFFFFFFFFFFFF AND PUSH20 0xFFFFFFFFFFFFFFFFFFFFFFFFFFFFFFFFFFFFFFFF AND DUP2 MSTORE PUSH1 0x20 ADD SWAP1 DUP2 MSTORE PUSH1 0x20 ADD PUSH1 0x0 KECCAK256 PUSH1 0x0 PUSH2 0x100 EXP DUP2 SLOAD DUP2 PUSH1 0xFF MUL NOT AND SWAP1 DUP4 ISZERO ISZERO MUL OR SWAP1 SSTORE POP PUSH1 0x4 PUSH1 0x0 DUP2 SLOAD DUP1 SWAP3 SWAP2 SWAP1 PUSH2 0x625 SWAP1 PUSH2 0xC89 JUMP JUMPDEST SWAP2 SWAP1 POP SSTORE POP JUMP JUMPDEST PUSH1 0x0 PUSH1 0x2 DUP3 DUP2 SLOAD DUP2 LT PUSH2 0x642 JUMPI PUSH2 0x641 PUSH2 0xB6A JUMP JUMPDEST JUMPDEST SWAP1 PUSH1 0x0 MSTORE PUSH1 0x20 PUSH1 0x0 KECCAK256 SWAP1 PUSH1 0x5 MUL ADD SWAP1 POP PUSH1 0x3 PUSH1 0x0 CALLER PUSH20 0xFFFFFFFFFFFFFFFFFFFFFFFFFFFFFFFFFFFFFFFF AND PUSH20 0xFFFFFFFFFFFFFFFFFFFFFFFFFFFFFFFFFFFFFFFF AND DUP2 MSTORE PUSH1 0x20 ADD SWAP1 DUP2 MSTORE PUSH1 0x20 ADD PUSH1 0x0 KECCAK256 PUSH1 0x0 SWAP1 SLOAD SWAP1 PUSH2 0x100 EXP SWAP1 DIV PUSH1 0xFF AND PUSH2 0x6A8 JUMPI PUSH1 0x0 DUP1 REVERT JUMPDEST DUP1 PUSH1 0x3 ADD PUSH1 0x0 CALLER PUSH20 0xFFFFFFFFFFFFFFFFFFFFFFFFFFFFFFFFFFFFFFFF AND PUSH20 0xFFFFFFFFFFFFFFFFFFFFFFFFFFFFFFFFFFFFFFFF AND DUP2 MSTORE PUSH1 0x20 ADD SWAP1 DUP2 MSTORE PUSH1 0x20 ADD PUSH1 0x0 KECCAK256 PUSH1 0x0 SWAP1 SLOAD SWAP1 PUSH2 0x100 EXP SWAP1 DIV PUSH1 0xFF AND ISZERO PUSH2 0x701 JUMPI PUSH1 0x0 DUP1 REVERT JUMPDEST PUSH1 0x1 DUP2 PUSH1 0x3 ADD PUSH1 0x0 CALLER PUSH20 0xFFFFFFFFFFFFFFFFFFFFFFFFFFFFFFFFFFFFFFFF AND PUSH20 0xFFFFFFFFFFFFFFFFFFFFFFFFFFFFFFFFFFFFFFFF AND DUP2 MSTORE PUSH1 0x20 ADD SWAP1 DUP2 MSTORE PUSH1 0x20 ADD PUSH1 0x0 KECCAK256 PUSH1 0x0 PUSH2 0x100 EXP DUP2 SLOAD DUP2 PUSH1 0xFF MUL NOT AND SWAP1 DUP4 ISZERO ISZERO MUL OR SWAP1 SSTORE POP DUP1 PUSH1 0x4 ADD PUSH1 0x0 DUP2 SLOAD DUP1 SWAP3 SWAP2 SWAP1 PUSH2 0x770 SWAP1 PUSH2 0xC89 JUMP JUMPDEST SWAP2 SWAP1 POP SSTORE POP POP POP JUMP JUMPDEST DUP3 DUP1 SLOAD PUSH2 0x785 SWAP1 PUSH2 0xC57 JUMP JUMPDEST SWAP1 PUSH1 0x0 MSTORE PUSH1 0x20 PUSH1 0x0 KECCAK256 SWAP1 PUSH1 0x1F ADD PUSH1 0x20 SWAP1 DIV DUP2 ADD SWAP3 DUP3 PUSH2 0x7A7 JUMPI PUSH1 0x0 DUP6 SSTORE PUSH2 0x7EE JUMP JUMPDEST DUP3 PUSH1 0x1F LT PUSH2 0x7C0 JUMPI DUP1 CALLDATALOAD PUSH1 0xFF NOT AND DUP4 DUP1 ADD OR DUP6 SSTORE PUSH2 0x7EE JUMP JUMPDEST DUP3 DUP1 ADD PUSH1 0x1 ADD DUP6 SSTORE DUP3 ISZERO PUSH2 0x7EE JUMPI SWAP2 DUP3 ADD JUMPDEST DUP3 DUP2 GT ISZERO PUSH2 0x7ED JUMPI DUP3 CALLDATALOAD DUP3 SSTORE SWAP2 PUSH1 0x20 ADD SWAP2 SWAP1 PUSH1 0x1 ADD SWAP1 PUSH2 0x7D2 JUMP JUMPDEST JUMPDEST POP SWAP1 POP PUSH2 0x7FB SWAP2 SWAP1 PUSH2 0x7FF JUMP JUMPDEST POP SWAP1 JUMP JUMPDEST JUMPDEST DUP1 DUP3 GT ISZERO PUSH2 0x818 JUMPI PUSH1 0x0 DUP2 PUSH1 0x0 SWAP1 SSTORE POP PUSH1 0x1 ADD PUSH2 0x800 JUMP JUMPDEST POP SWAP1 JUMP JUMPDEST PUSH1 0x0 DUP1 REVERT JUMPDEST PUSH1 0x0 DUP1 REVERT JUMPDEST PUSH1 0x0 DUP2 SWAP1 POP SWAP2 SWAP1 POP JUMP JUMPDEST PUSH2 0x839 DUP2 PUSH2 0x826 JUMP JUMPDEST DUP2 EQ PUSH2 0x844 JUMPI PUSH1 0x0 DUP1 REVERT JUMPDEST POP JUMP JUMPDEST PUSH1 0x0 DUP2 CALLDATALOAD SWAP1 POP PUSH2 0x856 DUP2 PUSH2 0x830 JUMP JUMPDEST SWAP3 SWAP2 POP POP JUMP JUMPDEST PUSH1 0x0 PUSH1 0x20 DUP3 DUP5 SUB SLT ISZERO PUSH2 0x872 JUMPI PUSH2 0x871 PUSH2 0x81C JUMP JUMPDEST JUMPDEST PUSH1 0x0 PUSH2 0x880 DUP5 DUP3 DUP6 ADD PUSH2 0x847 JUMP JUMPDEST SWAP2 POP POP SWAP3 SWAP2 POP POP JUMP JUMPDEST PUSH1 0x0 PUSH20 0xFFFFFFFFFFFFFFFFFFFFFFFFFFFFFFFFFFFFFFFF DUP3 AND SWAP1 POP SWAP2 SWAP1 POP JUMP JUMPDEST PUSH1 0x0 PUSH2 0x8B4 DUP3 PUSH2 0x889 JUMP JUMPDEST SWAP1 POP SWAP2 SWAP1 POP JUMP JUMPDEST PUSH2 0x8C4 DUP2 PUSH2 0x8A9 JUMP JUMPDEST DUP2 EQ PUSH2 0x8CF JUMPI PUSH1 0x0 DUP1 REVERT JUMPDEST POP JUMP JUMPDEST PUSH1 0x0 DUP2 CALLDATALOAD SWAP1 POP PUSH2 0x8E1 DUP2 PUSH2 0x8BB JUMP JUMPDEST SWAP3 SWAP2 POP POP JUMP JUMPDEST PUSH1 0x0 PUSH1 0x20 DUP3 DUP5 SUB SLT ISZERO PUSH2 0x8FD JUMPI PUSH2 0x8FC PUSH2 0x81C JUMP JUMPDEST JUMPDEST PUSH1 0x0 PUSH2 0x90B DUP5 DUP3 DUP6 ADD PUSH2 0x8D2 JUMP JUMPDEST SWAP2 POP POP SWAP3 SWAP2 POP POP JUMP JUMPDEST PUSH1 0x0 DUP2 ISZERO ISZERO SWAP1 POP SWAP2 SWAP1 POP JUMP JUMPDEST PUSH2 0x929 DUP2 PUSH2 0x914 JUMP JUMPDEST DUP3 MSTORE POP POP JUMP JUMPDEST PUSH1 0x0 PUSH1 0x20 DUP3 ADD SWAP1 POP PUSH2 0x944 PUSH1 0x0 DUP4 ADD DUP5 PUSH2 0x920 JUMP JUMPDEST SWAP3 SWAP2 POP POP JUMP JUMPDEST PUSH2 0x953 DUP2 PUSH2 0x8A9 JUMP JUMPDEST DUP3 MSTORE POP POP JUMP JUMPDEST PUSH1 0x0 PUSH1 0x20 DUP3 ADD SWAP1 POP PUSH2 0x96E PUSH1 0x0 DUP4 ADD DUP5 PUSH2 0x94A JUMP JUMPDEST SWAP3 SWAP2 POP POP JUMP JUMPDEST PUSH2 0x97D DUP2 PUSH2 0x826 JUMP JUMPDEST DUP3 MSTORE POP POP JUMP JUMPDEST PUSH1 0x0 PUSH1 0x20 DUP3 ADD SWAP1 POP PUSH2 0x998 PUSH1 0x0 DUP4 ADD DUP5 PUSH2 0x974 JUMP JUMPDEST SWAP3 SWAP2 POP POP JUMP JUMPDEST PUSH1 0x0 DUP2 MLOAD SWAP1 POP SWAP2 SWAP1 POP JUMP JUMPDEST PUSH1 0x0 DUP3 DUP3 MSTORE PUSH1 0x20 DUP3 ADD SWAP1 POP SWAP3 SWAP2 POP POP JUMP JUMPDEST PUSH1 0x0 JUMPDEST DUP4 DUP2 LT ISZERO PUSH2 0x9D8 JUMPI DUP1 DUP3 ADD MLOAD DUP2 DUP5 ADD MSTORE PUSH1 0x20 DUP2 ADD SWAP1 POP PUSH2 0x9BD JUMP JUMPDEST DUP4 DUP2 GT ISZERO PUSH2 0x9E7 JUMPI PUSH1 0x0 DUP5 DUP5 ADD MSTORE JUMPDEST POP POP POP POP JUMP JUMPDEST PUSH1 0x0 PUSH1 0x1F NOT PUSH1 0x1F DUP4 ADD AND SWAP1 POP SWAP2 SWAP1 POP JUMP JUMPDEST PUSH1 0x0 PUSH2 0xA09 DUP3 PUSH2 0x99E JUMP JUMPDEST PUSH2 0xA13 DUP2 DUP6 PUSH2 0x9A9 JUMP JUMPDEST SWAP4 POP PUSH2 0xA23 DUP2 DUP6 PUSH1 0x20 DUP7 ADD PUSH2 0x9BA JUMP JUMPDEST PUSH2 0xA2C DUP2 PUSH2 0x9ED JUMP JUMPDEST DUP5 ADD SWAP2 POP POP SWAP3 SWAP2 POP POP JUMP JUMPDEST PUSH1 0x0 PUSH1 0xA0 DUP3 ADD SWAP1 POP DUP2 DUP2 SUB PUSH1 0x0 DUP4 ADD MSTORE PUSH2 0xA51 DUP2 DUP9 PUSH2 0x9FE JUMP JUMPDEST SWAP1 POP PUSH2 0xA60 PUSH1 0x20 DUP4 ADD DUP8 PUSH2 0x974 JUMP JUMPDEST PUSH2 0xA6D PUSH1 0x40 DUP4 ADD DUP7 PUSH2 0x94A JUMP JUMPDEST PUSH2 0xA7A PUSH1 0x60 DUP4 ADD DUP6 PUSH2 0x920 JUMP JUMPDEST PUSH2 0xA87 PUSH1 0x80 DUP4 ADD DUP5 PUSH2 0x974 JUMP JUMPDEST SWAP7 SWAP6 POP POP POP POP POP POP JUMP JUMPDEST PUSH1 0x0 DUP1 REVERT JUMPDEST PUSH1 0x0 DUP1 REVERT JUMPDEST PUSH1 0x0 DUP1 REVERT JUMPDEST PUSH1 0x0 DUP1 DUP4 PUSH1 0x1F DUP5 ADD SLT PUSH2 0xAB6 JUMPI PUSH2 0xAB5 PUSH2 0xA91 JUMP JUMPDEST JUMPDEST DUP3 CALLDATALOAD SWAP1 POP PUSH8 0xFFFFFFFFFFFFFFFF DUP2 GT ISZERO PUSH2 0xAD3 JUMPI PUSH2 0xAD2 PUSH2 0xA96 JUMP JUMPDEST JUMPDEST PUSH1 0x20 DUP4 ADD SWAP2 POP DUP4 PUSH1 0x1 DUP3 MUL DUP4 ADD GT ISZERO PUSH2 0xAEF JUMPI PUSH2 0xAEE PUSH2 0xA9B JUMP JUMPDEST JUMPDEST SWAP3 POP SWAP3 SWAP1 POP JUMP JUMPDEST PUSH1 0x0 DUP1 PUSH1 0x0 DUP1 PUSH1 0x60 DUP6 DUP8 SUB SLT ISZERO PUSH2 0xB10 JUMPI PUSH2 0xB0F PUSH2 0x81C JUMP JUMPDEST JUMPDEST PUSH1 0x0 DUP6 ADD CALLDATALOAD PUSH8 0xFFFFFFFFFFFFFFFF DUP2 GT ISZERO PUSH2 0xB2E JUMPI PUSH2 0xB2D PUSH2 0x821 JUMP JUMPDEST JUMPDEST PUSH2 0xB3A DUP8 DUP3 DUP9 ADD PUSH2 0xAA0 JUMP JUMPDEST SWAP5 POP SWAP5 POP POP PUSH1 0x20 PUSH2 0xB4D DUP8 DUP3 DUP9 ADD PUSH2 0x847 JUMP JUMPDEST SWAP3 POP POP PUSH1 0x40 PUSH2 0xB5E DUP8 DUP3 DUP9 ADD PUSH2 0x8D2 JUMP JUMPDEST SWAP2 POP POP SWAP3 SWAP6 SWAP2 SWAP5 POP SWAP3 POP JUMP JUMPDEST PUSH32 0x4E487B7100000000000000000000000000000000000000000000000000000000 PUSH1 0x0 MSTORE PUSH1 0x32 PUSH1 0x4 MSTORE PUSH1 0x24 PUSH1 0x0 REVERT JUMPDEST PUSH32 0x4E487B7100000000000000000000000000000000000000000000000000000000 PUSH1 0x0 MSTORE PUSH1 0x12 PUSH1 0x4 MSTORE PUSH1 0x24 PUSH1 0x0 REVERT JUMPDEST PUSH32 0x4E487B7100000000000000000000000000000000000000000000000000000000 PUSH1 0x0 MSTORE PUSH1 0x11 PUSH1 0x4 MSTORE PUSH1 0x24 PUSH1 0x0 REVERT JUMPDEST PUSH1 0x0 PUSH2 0xC02 DUP3 PUSH2 0x826 JUMP JUMPDEST SWAP2 POP PUSH2 0xC0D DUP4 PUSH2 0x826 JUMP JUMPDEST SWAP3 POP DUP3 PUSH2 0xC1D JUMPI PUSH2 0xC1C PUSH2 0xB99 JUMP JUMPDEST JUMPDEST DUP3 DUP3 DIV SWAP1 POP SWAP3 SWAP2 POP POP JUMP JUMPDEST PUSH32 0x4E487B7100000000000000000000000000000000000000000000000000000000 PUSH1 0x0 MSTORE PUSH1 0x22 PUSH1 0x4 MSTORE PUSH1 0x24 PUSH1 0x0 REVERT JUMPDEST PUSH1 0x0 PUSH1 0x2 DUP3 DIV SWAP1 POP PUSH1 0x1 DUP3 AND DUP1 PUSH2 0xC6F JUMPI PUSH1 0x7F DUP3 AND SWAP2 POP JUMPDEST PUSH1 0x20 DUP3 LT DUP2 EQ ISZERO PUSH2 0xC83 JUMPI PUSH2 0xC82 PUSH2 0xC28 JUMP JUMPDEST JUMPDEST POP SWAP2 SWAP1 POP JUMP JUMPDEST PUSH1 0x0 PUSH2 0xC94 DUP3 PUSH2 0x826 JUMP JUMPDEST SWAP2 POP PUSH32 0xFFFFFFFFFFFFFFFFFFFFFFFFFFFFFFFFFFFFFFFFFFFFFFFFFFFFFFFFFFFFFFFF DUP3 EQ ISZERO PUSH2 0xCC7 JUMPI PUSH2 0xCC6 PUSH2 0xBC8 JUMP JUMPDEST JUMPDEST PUSH1 0x1 DUP3 ADD SWAP1 POP SWAP2 SWAP1 POP JUMP INVALID LOG2 PUSH5 0x6970667358 0x22 SLT KECCAK256 SIGNEXTEND BLOCKHASH 0xE6 DUP2 PUSH7 0x5899BCE45DC4DB SELFDESTRUCT 0xDF 0xD9 0x21 PUSH5 0xABE06CB10D CHAINID BLOCKHASH 0xB5 0xC4 0xE EXP PUSH10 0x2D75FA64736F6C634300 ADDMOD MULMOD STOP CALLER LOG2 PUSH5 0x6970667358 0x22 SLT KECCAK256 0x23 0xFC SHR GAS 0x1E 0xD5 PUSH24 0xC1CEC2021BBC6B42C854E2E5C645BC08CB058C41E59C1112 0xB3 PUSH5 0x736F6C6343 STOP ADDMOD MULMOD STOP CALLER "},"gasEstimates":{"creation":{"codeDepositCost":"961400","executionCost":"1001","totalCost":"962401"},"external":{"campains(uint256)":"4978","createCampaign(uint256)":"infinite","getCampaigns()":"infinite"}},"methodIdentifiers":{"campains(uint256)":"a9d5cba3","createCampaign(uint256)":"a3303a75","getCampaigns()":"a6b03633"}},"storageLayout":{"storage":[{"astId":4,"contract":"Campaign.sol:CampaignFactory","label":"campains","offset":0,"slot":"0","type":"t_array(t_address)dyn_storage"}],"types":{"t_address":{"encoding":"inplace","label":"address","numberOfBytes":"20"},"t_array(t_address)dyn_storage":{"base":"t_address","encoding":"dynamic_array","label":"address[]","numberOfBytes":"32"}}},"userdoc":{"kind":"user","methods":{},"version":1}}